{
  "_format": "hh-sol-artifact-1",
  "contractName": "PayPaiTestToken",
  "sourceName": "contracts-src/PayPaiTestToken.sol",
  "abi": [
    {
      "inputs": [
        {
          "internalType": "string",
          "name": "name_",
          "type": "string"
        },
        {
          "internalType": "string",
          "name": "symbol_",
          "type": "string"
        },
        {
          "internalType": "uint256",
          "name": "initialSupply",
          "type": "uint256"
        },
        {
          "internalType": "address",
          "name": "initialRecipient",
          "type": "address"
        },
        {
          "internalType": "uint8",
          "name": "decimals_",
          "type": "uint8"
        },
        {
          "internalType": "uint256",
          "name": "faucetAmount_",
          "type": "uint256"
        },
        {
          "internalType": "uint256",
          "name": "faucetCooldown_",
          "type": "uint256"
        }
      ],
      "stateMutability": "nonpayable",
      "type": "constructor"
    },
    {
      "inputs": [
        {
          "internalType": "address",
          "name": "spender",
          "type": "address"
        },
        {
          "internalType": "uint256",
          "name": "allowance",
          "type": "uint256"
        },
        {
          "internalType": "uint256",
          "name": "needed",
          "type": "uint256"
        }
      ],
      "name": "ERC20InsufficientAllowance",
      "type": "error"
    },
    {
      "inputs": [
        {
          "internalType": "address",
          "name": "sender",
          "type": "address"
        },
        {
          "internalType": "uint256",
          "name": "balance",
          "type": "uint256"
        },
        {
          "internalType": "uint256",
          "name": "needed",
          "type": "uint256"
        }
      ],
      "name": "ERC20InsufficientBalance",
      "type": "error"
    },
    {
      "inputs": [
        {
          "internalType": "address",
          "name": "approver",
          "type": "address"
        }
      ],
      "name": "ERC20InvalidApprover",
      "type": "error"
    },
    {
      "inputs": [
        {
          "internalType": "address",
          "name": "receiver",
          "type": "address"
        }
      ],
      "name": "ERC20InvalidReceiver",
      "type": "error"
    },
    {
      "inputs": [
        {
          "internalType": "address",
          "name": "sender",
          "type": "address"
        }
      ],
      "name": "ERC20InvalidSender",
      "type": "error"
    },
    {
      "inputs": [
        {
          "internalType": "address",
          "name": "spender",
          "type": "address"
        }
      ],
      "name": "ERC20InvalidSpender",
      "type": "error"
    },
    {
      "inputs": [
        {
          "internalType": "address",
          "name": "owner",
          "type": "address"
        }
      ],
      "name": "OwnableInvalidOwner",
      "type": "error"
    },
    {
      "inputs": [
        {
          "internalType": "address",
          "name": "account",
          "type": "address"
        }
      ],
      "name": "OwnableUnauthorizedAccount",
      "type": "error"
    },
    {
      "anonymous": false,
      "inputs": [
        {
          "indexed": true,
          "internalType": "address",
          "name": "owner",
          "type": "address"
        },
        {
          "indexed": true,
          "internalType": "address",
          "name": "spender",
          "type": "address"
        },
        {
          "indexed": false,
          "internalType": "uint256",
          "name": "value",
          "type": "uint256"
        }
      ],
      "name": "Approval",
      "type": "event"
    },
    {
      "anonymous": false,
      "inputs": [
        {
          "indexed": true,
          "internalType": "address",
          "name": "previousOwner",
          "type": "address"
        },
        {
          "indexed": true,
          "internalType": "address",
          "name": "newOwner",
          "type": "address"
        }
      ],
      "name": "OwnershipTransferred",
      "type": "event"
    },
    {
      "anonymous": false,
      "inputs": [
        {
          "indexed": true,
          "internalType": "address",
          "name": "from",
          "type": "address"
        },
        {
          "indexed": true,
          "internalType": "address",
          "name": "to",
          "type": "address"
        },
        {
          "indexed": false,
          "internalType": "uint256",
          "name": "value",
          "type": "uint256"
        }
      ],
      "name": "Transfer",
      "type": "event"
    },
    {
      "inputs": [
        {
          "internalType": "address",
          "name": "owner",
          "type": "address"
        },
        {
          "internalType": "address",
          "name": "spender",
          "type": "address"
        }
      ],
      "name": "allowance",
      "outputs": [
        {
          "internalType": "uint256",
          "name": "",
          "type": "uint256"
        }
      ],
      "stateMutability": "view",
      "type": "function"
    },
    {
      "inputs": [
        {
          "internalType": "address",
          "name": "spender",
          "type": "address"
        },
        {
          "internalType": "uint256",
          "name": "value",
          "type": "uint256"
        }
      ],
      "name": "approve",
      "outputs": [
        {
          "internalType": "bool",
          "name": "",
          "type": "bool"
        }
      ],
      "stateMutability": "nonpayable",
      "type": "function"
    },
    {
      "inputs": [
        {
          "internalType": "address",
          "name": "account",
          "type": "address"
        }
      ],
      "name": "balanceOf",
      "outputs": [
        {
          "internalType": "uint256",
          "name": "",
          "type": "uint256"
        }
      ],
      "stateMutability": "view",
      "type": "function"
    },
    {
      "inputs": [],
      "name": "decimals",
      "outputs": [
        {
          "internalType": "uint8",
          "name": "",
          "type": "uint8"
        }
      ],
      "stateMutability": "view",
      "type": "function"
    },
    {
      "inputs": [],
      "name": "faucetAmount",
      "outputs": [
        {
          "internalType": "uint256",
          "name": "",
          "type": "uint256"
        }
      ],
      "stateMutability": "view",
      "type": "function"
    },
    {
      "inputs": [],
      "name": "faucetCooldown",
      "outputs": [
        {
          "internalType": "uint256",
          "name": "",
          "type": "uint256"
        }
      ],
      "stateMutability": "view",
      "type": "function"
    },
    {
      "inputs": [],
      "name": "faucetMint",
      "outputs": [],
      "stateMutability": "nonpayable",
      "type": "function"
    },
    {
      "inputs": [
        {
          "internalType": "address",
          "name": "",
          "type": "address"
        }
      ],
      "name": "lastMintAt",
      "outputs": [
        {
          "internalType": "uint256",
          "name": "",
          "type": "uint256"
        }
      ],
      "stateMutability": "view",
      "type": "function"
    },
    {
      "inputs": [
        {
          "internalType": "address",
          "name": "to",
          "type": "address"
        },
        {
          "internalType": "uint256",
          "name": "amount",
          "type": "uint256"
        }
      ],
      "name": "mint",
      "outputs": [],
      "stateMutability": "nonpayable",
      "type": "function"
    },
    {
      "inputs": [],
      "name": "name",
      "outputs": [
        {
          "internalType": "string",
          "name": "",
          "type": "string"
        }
      ],
      "stateMutability": "view",
      "type": "function"
    },
    {
      "inputs": [],
      "name": "owner",
      "outputs": [
        {
          "internalType": "address",
          "name": "",
          "type": "address"
        }
      ],
      "stateMutability": "view",
      "type": "function"
    },
    {
      "inputs": [],
      "name": "renounceOwnership",
      "outputs": [],
      "stateMutability": "nonpayable",
      "type": "function"
    },
    {
      "inputs": [
        {
          "internalType": "uint256",
          "name": "amount",
          "type": "uint256"
        },
        {
          "internalType": "uint256",
          "name": "cooldownSeconds",
          "type": "uint256"
        }
      ],
      "name": "setFaucetConfig",
      "outputs": [],
      "stateMutability": "nonpayable",
      "type": "function"
    },
    {
      "inputs": [],
      "name": "symbol",
      "outputs": [
        {
          "internalType": "string",
          "name": "",
          "type": "string"
        }
      ],
      "stateMutability": "view",
      "type": "function"
    },
    {
      "inputs": [],
      "name": "totalSupply",
      "outputs": [
        {
          "internalType": "uint256",
          "name": "",
          "type": "uint256"
        }
      ],
      "stateMutability": "view",
      "type": "function"
    },
    {
      "inputs": [
        {
          "internalType": "address",
          "name": "to",
          "type": "address"
        },
        {
          "internalType": "uint256",
          "name": "value",
          "type": "uint256"
        }
      ],
      "name": "transfer",
      "outputs": [
        {
          "internalType": "bool",
          "name": "",
          "type": "bool"
        }
      ],
      "stateMutability": "nonpayable",
      "type": "function"
    },
    {
      "inputs": [
        {
          "internalType": "address",
          "name": "from",
          "type": "address"
        },
        {
          "internalType": "address",
          "name": "to",
          "type": "address"
        },
        {
          "internalType": "uint256",
          "name": "value",
          "type": "uint256"
        }
      ],
      "name": "transferFrom",
      "outputs": [
        {
          "internalType": "bool",
          "name": "",
          "type": "bool"
        }
      ],
      "stateMutability": "nonpayable",
      "type": "function"
    },
    {
      "inputs": [
        {
          "internalType": "address",
          "name": "newOwner",
          "type": "address"
        }
      ],
      "name": "transferOwnership",
      "outputs": [],
      "stateMutability": "nonpayable",
      "type": "function"
    }
  ],
  "bytecode": "0x60a06040523480156200001157600080fd5b506040516200102038038062001020833981016040819052620000349162000348565b33878760036200004583826200049e565b5060046200005482826200049e565b5050506001600160a01b0381166200008757604051631e4fbdf760e01b8152600060048201526024015b60405180910390fd5b6200009281620000bd565b5060ff831660805260068290556007819055620000b084866200010f565b5050505050505062000592565b600580546001600160a01b038381166001600160a01b0319831681179093556040519116919082907f8be0079c531659141344cd1fd0a4f28419497f9722a3daafe3b4186f6b6457e090600090a35050565b6001600160a01b0382166200013b5760405163ec442f0560e01b8152600060048201526024016200007e565b62000149600083836200014d565b5050565b6001600160a01b0383166200017c5780600260008282546200017091906200056a565b90915550620001f09050565b6001600160a01b03831660009081526020819052604090205481811015620001d15760405163391434e360e21b81526001600160a01b038516600482015260248101829052604481018390526064016200007e565b6001600160a01b03841660009081526020819052604090209082900390555b6001600160a01b0382166200020e576002805482900390556200022d565b6001600160a01b03821660009081526020819052604090208054820190555b816001600160a01b0316836001600160a01b03167fddf252ad1be2c89b69c2b068fc378daa952ba7f163c4a11628f55a4df523b3ef836040516200027391815260200190565b60405180910390a3505050565b634e487b7160e01b600052604160045260246000fd5b600082601f830112620002a857600080fd5b81516001600160401b0380821115620002c557620002c562000280565b604051601f8301601f19908116603f01168101908282118183101715620002f057620002f062000280565b81604052838152602092508660208588010111156200030e57600080fd5b600091505b8382101562000332578582018301518183018401529082019062000313565b6000602085830101528094505050505092915050565b600080600080600080600060e0888a0312156200036457600080fd5b87516001600160401b03808211156200037c57600080fd5b6200038a8b838c0162000296565b985060208a0151915080821115620003a157600080fd5b50620003b08a828b0162000296565b60408a015160608b0151919850965090506001600160a01b0381168114620003d757600080fd5b608089015190945060ff81168114620003ef57600080fd5b8093505060a0880151915060c0880151905092959891949750929550565b600181811c908216806200042257607f821691505b6020821081036200044357634e487b7160e01b600052602260045260246000fd5b50919050565b601f82111562000499576000816000526020600020601f850160051c81016020861015620004745750805b601f850160051c820191505b81811015620004955782815560010162000480565b5050505b505050565b81516001600160401b03811115620004ba57620004ba62000280565b620004d281620004cb84546200040d565b8462000449565b602080601f8311600181146200050a5760008415620004f15750858301515b600019600386901b1c1916600185901b17855562000495565b600085815260208120601f198616915b828110156200053b578886015182559484019460019091019084016200051a565b50858210156200055a5787850151600019600388901b60f8161c191681555b5050505050600190811b01905550565b808201808211156200058c57634e487b7160e01b600052601160045260246000fd5b92915050565b608051610a72620005ae60003960006101920152610a726000f3fe608060405234801561001057600080fd5b50600436106101165760003560e01c8063715018a6116100a25780639c281430116100715780639c2814301461024c578063a9059cbb14610255578063ba7c8acd14610268578063dd62ed3e1461027b578063f2fde38b146102b457600080fd5b8063715018a6146102185780637e36320b146102205780638da5cb5b1461022957806395d89b411461024457600080fd5b806323b872dd116100e957806323b872dd14610178578063313ce5671461018b578063384c40ba146101bc57806340c10f19146101dc57806370a08231146101ef57600080fd5b806306fdde031461011b578063095ea7b31461013957806313eda8fc1461015c57806318160ddd14610166575b600080fd5b6101236102c7565b6040516101309190610899565b60405180910390f35b61014c610147366004610904565b610359565b6040519015158152602001610130565b610164610373565b005b6002545b604051908152602001610130565b61014c61018636600461092e565b61043c565b60405160ff7f0000000000000000000000000000000000000000000000000000000000000000168152602001610130565b61016a6101ca36600461096a565b60086020526000908152604090205481565b6101646101ea366004610904565b610460565b61016a6101fd36600461096a565b6001600160a01b031660009081526020819052604090205490565b610164610476565b61016a60075481565b6005546040516001600160a01b039091168152602001610130565b61012361048a565b61016a60065481565b61014c610263366004610904565b610499565b61016461027636600461098c565b6104a7565b61016a6102893660046109ae565b6001600160a01b03918216600090815260016020908152604080832093909416825291909152205490565b6101646102c236600461096a565b6104ba565b6060600380546102d6906109e1565b80601f0160208091040260200160405190810160405280929190818152602001828054610302906109e1565b801561034f5780601f106103245761010080835404028352916020019161034f565b820191906000526020600020905b81548152906001019060200180831161033257829003601f168201915b5050505050905090565b6000336103678185856104f5565b60019150505b92915050565b6000600654116103bc5760405162461bcd60e51b815260206004820152600f60248201526e11985d58d95d08191a5cd8589b1959608a1b60448201526064015b60405180910390fd5b336000908152600860205260409020546007546103d99082610a1b565b42101561041a5760405162461bcd60e51b815260206004820152600f60248201526e2330bab1b2ba1031b7b7b63237bbb760891b60448201526064016103b3565b3360008181526008602052604090204290556006546104399190610507565b50565b60003361044a85828561053d565b6104558585856105bc565b506001949350505050565b61046861061b565b6104728282610507565b5050565b61047e61061b565b6104886000610648565b565b6060600480546102d6906109e1565b6000336103678185856105bc565b6104af61061b565b600691909155600755565b6104c261061b565b6001600160a01b0381166104ec57604051631e4fbdf760e01b8152600060048201526024016103b3565b61043981610648565b610502838383600161069a565b505050565b6001600160a01b0382166105315760405163ec442f0560e01b8152600060048201526024016103b3565b6104726000838361076f565b6001600160a01b038381166000908152600160209081526040808320938616835292905220546000198110156105b657818110156105a757604051637dc7a0d960e11b81526001600160a01b038416600482015260248101829052604481018390526064016103b3565b6105b68484848403600061069a565b50505050565b6001600160a01b0383166105e657604051634b637e8f60e11b8152600060048201526024016103b3565b6001600160a01b0382166106105760405163ec442f0560e01b8152600060048201526024016103b3565b61050283838361076f565b6005546001600160a01b031633146104885760405163118cdaa760e01b81523360048201526024016103b3565b600580546001600160a01b038381166001600160a01b0319831681179093556040519116919082907f8be0079c531659141344cd1fd0a4f28419497f9722a3daafe3b4186f6b6457e090600090a35050565b6001600160a01b0384166106c45760405163e602df0560e01b8152600060048201526024016103b3565b6001600160a01b0383166106ee57604051634a1406b160e11b8152600060048201526024016103b3565b6001600160a01b03808516600090815260016020908152604080832093871683529290522082905580156105b657826001600160a01b0316846001600160a01b03167f8c5be1e5ebec7d5bd14f71427d1e84f3dd0314c0f7b2291e5b200ac8c7c3b9258460405161076191815260200190565b60405180910390a350505050565b6001600160a01b03831661079a57806002600082825461078f9190610a1b565b9091555061080c9050565b6001600160a01b038316600090815260208190526040902054818110156107ed5760405163391434e360e21b81526001600160a01b038516600482015260248101829052604481018390526064016103b3565b6001600160a01b03841660009081526020819052604090209082900390555b6001600160a01b03821661082857600280548290039055610847565b6001600160a01b03821660009081526020819052604090208054820190555b816001600160a01b0316836001600160a01b03167fddf252ad1be2c89b69c2b068fc378daa952ba7f163c4a11628f55a4df523b3ef8360405161088c91815260200190565b60405180910390a3505050565b60006020808352835180602085015260005b818110156108c7578581018301518582016040015282016108ab565b506000604082860101526040601f19601f8301168501019250505092915050565b80356001600160a01b03811681146108ff57600080fd5b919050565b6000806040838503121561091757600080fd5b610920836108e8565b946020939093013593505050565b60008060006060848603121561094357600080fd5b61094c846108e8565b925061095a602085016108e8565b9150604084013590509250925092565b60006020828403121561097c57600080fd5b610985826108e8565b9392505050565b6000806040838503121561099f57600080fd5b50508035926020909101359150565b600080604083850312156109c157600080fd5b6109ca836108e8565b91506109d8602084016108e8565b90509250929050565b600181811c908216806109f557607f821691505b602082108103610a1557634e487b7160e01b600052602260045260246000fd5b50919050565b8082018082111561036d57634e487b7160e01b600052601160045260246000fdfea2646970667358221220d453ecef23ae50df78a7b3621c9c22a2053a9712bc056e54670060ddf140edab64736f6c63430008160033",
  "linkReferences": {},
  "deployedLinkReferences": {}
}