{
  "_format": "hh-sol-artifact-1",
  "contractName": "ClientAgentVault",
  "sourceName": "contracts-src/ClientAgentVault.sol",
  "abi": [
    {
      "inputs": [],
      "name": "InvalidInitialization",
      "type": "error"
    },
    {
      "inputs": [],
      "name": "NotInitializing",
      "type": "error"
    },
    {
      "inputs": [
        {
          "internalType": "address",
          "name": "owner",
          "type": "address"
        }
      ],
      "name": "OwnableInvalidOwner",
      "type": "error"
    },
    {
      "inputs": [
        {
          "internalType": "address",
          "name": "account",
          "type": "address"
        }
      ],
      "name": "OwnableUnauthorizedAccount",
      "type": "error"
    },
    {
      "anonymous": false,
      "inputs": [
        {
          "indexed": true,
          "internalType": "address",
          "name": "executor",
          "type": "address"
        },
        {
          "indexed": false,
          "internalType": "bool",
          "name": "allowed",
          "type": "bool"
        }
      ],
      "name": "ExecutorUpdated",
      "type": "event"
    },
    {
      "anonymous": false,
      "inputs": [
        {
          "indexed": false,
          "internalType": "uint64",
          "name": "version",
          "type": "uint64"
        }
      ],
      "name": "Initialized",
      "type": "event"
    },
    {
      "anonymous": false,
      "inputs": [
        {
          "indexed": true,
          "internalType": "address",
          "name": "previousOwner",
          "type": "address"
        },
        {
          "indexed": true,
          "internalType": "address",
          "name": "newOwner",
          "type": "address"
        }
      ],
      "name": "OwnershipTransferred",
      "type": "event"
    },
    {
      "anonymous": false,
      "inputs": [
        {
          "indexed": true,
          "internalType": "address",
          "name": "executor",
          "type": "address"
        },
        {
          "indexed": true,
          "internalType": "address",
          "name": "recipient",
          "type": "address"
        },
        {
          "indexed": false,
          "internalType": "uint256",
          "name": "amount",
          "type": "uint256"
        }
      ],
      "name": "SpendExecuted",
      "type": "event"
    },
    {
      "anonymous": false,
      "inputs": [
        {
          "components": [
            {
              "internalType": "address",
              "name": "token",
              "type": "address"
            },
            {
              "internalType": "uint256",
              "name": "timeWindow",
              "type": "uint256"
            },
            {
              "internalType": "uint256",
              "name": "budget",
              "type": "uint256"
            },
            {
              "internalType": "uint256",
              "name": "initialWindowStartTime",
              "type": "uint256"
            },
            {
              "internalType": "address[]",
              "name": "whitelist",
              "type": "address[]"
            },
            {
              "internalType": "address[]",
              "name": "blacklist",
              "type": "address[]"
            }
          ],
          "indexed": false,
          "internalType": "struct ClientAgentVault.SpendingRule[]",
          "name": "rules",
          "type": "tuple[]"
        }
      ],
      "name": "SpendingRulesConfigured",
      "type": "event"
    },
    {
      "anonymous": false,
      "inputs": [
        {
          "indexed": false,
          "internalType": "address",
          "name": "token",
          "type": "address"
        },
        {
          "indexed": false,
          "internalType": "uint256",
          "name": "amount",
          "type": "uint256"
        },
        {
          "indexed": false,
          "internalType": "address",
          "name": "recipient",
          "type": "address"
        }
      ],
      "name": "Withdrawal",
      "type": "event"
    },
    {
      "inputs": [
        {
          "internalType": "uint256",
          "name": "amount",
          "type": "uint256"
        },
        {
          "internalType": "address",
          "name": "provider",
          "type": "address"
        }
      ],
      "name": "checkSpendAllowed",
      "outputs": [
        {
          "internalType": "bool",
          "name": "",
          "type": "bool"
        }
      ],
      "stateMutability": "view",
      "type": "function"
    },
    {
      "inputs": [
        {
          "components": [
            {
              "internalType": "address",
              "name": "token",
              "type": "address"
            },
            {
              "internalType": "uint256",
              "name": "timeWindow",
              "type": "uint256"
            },
            {
              "internalType": "uint256",
              "name": "budget",
              "type": "uint256"
            },
            {
              "internalType": "uint256",
              "name": "initialWindowStartTime",
              "type": "uint256"
            },
            {
              "internalType": "address[]",
              "name": "whitelist",
              "type": "address[]"
            },
            {
              "internalType": "address[]",
              "name": "blacklist",
              "type": "address[]"
            }
          ],
          "internalType": "struct ClientAgentVault.SpendingRule[]",
          "name": "rules",
          "type": "tuple[]"
        }
      ],
      "name": "configureSpendingRules",
      "outputs": [],
      "stateMutability": "nonpayable",
      "type": "function"
    },
    {
      "inputs": [],
      "name": "currentBudget",
      "outputs": [
        {
          "internalType": "uint256",
          "name": "",
          "type": "uint256"
        }
      ],
      "stateMutability": "view",
      "type": "function"
    },
    {
      "inputs": [],
      "name": "currentWindowDuration",
      "outputs": [
        {
          "internalType": "uint256",
          "name": "",
          "type": "uint256"
        }
      ],
      "stateMutability": "view",
      "type": "function"
    },
    {
      "inputs": [],
      "name": "currentWindowStart",
      "outputs": [
        {
          "internalType": "uint256",
          "name": "",
          "type": "uint256"
        }
      ],
      "stateMutability": "view",
      "type": "function"
    },
    {
      "inputs": [
        {
          "internalType": "uint256",
          "name": "amount",
          "type": "uint256"
        },
        {
          "internalType": "address",
          "name": "recipient",
          "type": "address"
        }
      ],
      "name": "executeSpend",
      "outputs": [],
      "stateMutability": "nonpayable",
      "type": "function"
    },
    {
      "inputs": [],
      "name": "getSpendingRules",
      "outputs": [
        {
          "components": [
            {
              "internalType": "address",
              "name": "token",
              "type": "address"
            },
            {
              "internalType": "uint256",
              "name": "timeWindow",
              "type": "uint256"
            },
            {
              "internalType": "uint256",
              "name": "budget",
              "type": "uint256"
            },
            {
              "internalType": "uint256",
              "name": "initialWindowStartTime",
              "type": "uint256"
            },
            {
              "internalType": "address[]",
              "name": "whitelist",
              "type": "address[]"
            },
            {
              "internalType": "address[]",
              "name": "blacklist",
              "type": "address[]"
            }
          ],
          "internalType": "struct ClientAgentVault.SpendingRule[]",
          "name": "",
          "type": "tuple[]"
        }
      ],
      "stateMutability": "view",
      "type": "function"
    },
    {
      "inputs": [
        {
          "internalType": "address",
          "name": "_settlementToken",
          "type": "address"
        },
        {
          "internalType": "address",
          "name": "_admin",
          "type": "address"
        },
        {
          "internalType": "address",
          "name": "_spendingAccount",
          "type": "address"
        }
      ],
      "name": "initialize",
      "outputs": [],
      "stateMutability": "nonpayable",
      "type": "function"
    },
    {
      "inputs": [
        {
          "internalType": "address",
          "name": "executor",
          "type": "address"
        }
      ],
      "name": "isExecutor",
      "outputs": [
        {
          "internalType": "bool",
          "name": "",
          "type": "bool"
        }
      ],
      "stateMutability": "view",
      "type": "function"
    },
    {
      "inputs": [],
      "name": "owner",
      "outputs": [
        {
          "internalType": "address",
          "name": "",
          "type": "address"
        }
      ],
      "stateMutability": "view",
      "type": "function"
    },
    {
      "inputs": [],
      "name": "renounceOwnership",
      "outputs": [],
      "stateMutability": "nonpayable",
      "type": "function"
    },
    {
      "inputs": [
        {
          "internalType": "address",
          "name": "executor",
          "type": "address"
        },
        {
          "internalType": "bool",
          "name": "allowed",
          "type": "bool"
        }
      ],
      "name": "setExecutor",
      "outputs": [],
      "stateMutability": "nonpayable",
      "type": "function"
    },
    {
      "inputs": [],
      "name": "settlementToken",
      "outputs": [
        {
          "internalType": "contract IERC20",
          "name": "",
          "type": "address"
        }
      ],
      "stateMutability": "view",
      "type": "function"
    },
    {
      "inputs": [],
      "name": "spendingAccount",
      "outputs": [
        {
          "internalType": "address",
          "name": "",
          "type": "address"
        }
      ],
      "stateMutability": "view",
      "type": "function"
    },
    {
      "inputs": [
        {
          "internalType": "uint256",
          "name": "",
          "type": "uint256"
        }
      ],
      "name": "spendingRules",
      "outputs": [
        {
          "internalType": "address",
          "name": "token",
          "type": "address"
        },
        {
          "internalType": "uint256",
          "name": "timeWindow",
          "type": "uint256"
        },
        {
          "internalType": "uint256",
          "name": "budget",
          "type": "uint256"
        },
        {
          "internalType": "uint256",
          "name": "initialWindowStartTime",
          "type": "uint256"
        }
      ],
      "stateMutability": "view",
      "type": "function"
    },
    {
      "inputs": [
        {
          "internalType": "address",
          "name": "newOwner",
          "type": "address"
        }
      ],
      "name": "transferOwnership",
      "outputs": [],
      "stateMutability": "nonpayable",
      "type": "function"
    },
    {
      "inputs": [
        {
          "internalType": "address",
          "name": "token",
          "type": "address"
        },
        {
          "internalType": "uint256",
          "name": "amount",
          "type": "uint256"
        },
        {
          "internalType": "address",
          "name": "recipient",
          "type": "address"
        }
      ],
      "name": "withdraw",
      "outputs": [],
      "stateMutability": "nonpayable",
      "type": "function"
    }
  ],
  "bytecode": "0x608060405234801561001057600080fd5b50611838806100206000396000f3fe608060405234801561001057600080fd5b506004361061010b5760003560e01c80638da5cb5b116100a2578063b5a15bfe11610071578063b5a15bfe146101ff578063b5b9a51914610212578063c0c53b8b1461024f578063debfda3014610262578063f2fde38b1461028e57600080fd5b80638da5cb5b146101c65780638f09da64146101ce578063a16eb3df146101d7578063ac8a6187146101ea57600080fd5b806369328dec116100de57806369328dec1461016d578063715018a6146101805780637b9e618d146101885780637bc91b3d146101b357600080fd5b806313bc9e68146101105780631e1bff3f1461012c57806339c3856f14610141578063579abdd014610164575b600080fd5b61011960055481565b6040519081526020015b60405180910390f35b61013f61013a3660046111c6565b6102a1565b005b61015461014f3660046111ff565b610308565b6040519015158152602001610123565b61011960065481565b61013f61017b366004611224565b61047d565b61013f610547565b60005461019b906001600160a01b031681565b6040516001600160a01b039091168152602001610123565b61013f6101c1366004611266565b61055b565b61019b610761565b61011960045481565b60015461019b906001600160a01b031681565b6101f261078f565b6040516101239190611320565b61013f61020d3660046111ff565b6108db565b6102256102203660046113df565b610d21565b604080516001600160a01b0390951685526020850193909352918301526060820152608001610123565b61013f61025d3660046113f8565b610d65565b610154610270366004611438565b6001600160a01b031660009081526002602052604090205460ff1690565b61013f61029c366004611438565b610e93565b6102a9610ed1565b6001600160a01b038216600081815260026020908152604091829020805460ff191685151590811790915591519182527f9fdbc2d48b8a0db2f62663bf9312ad02f5b1f6414ad600b55a247d09aeec3ea2910160405180910390a25050565b60006006546000148061032a57506006546005546103269190611472565b4210155b1561033757506000610477565b60045483111561034957506000610477565b6001546001600160a01b031661036157506000610477565b6000546001546040516370a0823160e01b81526001600160a01b039182166004820152859291909116906370a0823190602401602060405180830381865afa1580156103b1573d6000803e3d6000fd5b505050506040513d601f19601f820116820180604052508101906103d59190611485565b10156103e357506000610477565b600054600154604051636eb1769f60e11b81526001600160a01b0391821660048201523060248201528592919091169063dd62ed3e90604401602060405180830381865afa158015610439573d6000803e3d6000fd5b505050506040513d601f19601f8201168201806040525081019061045d9190611485565b101561046b57506000610477565b61047482610f03565b90505b92915050565b610485610ed1565b60405163a9059cbb60e01b81526001600160a01b0382811660048301526024820184905284169063a9059cbb906044016020604051808303816000875af11580156104d4573d6000803e3d6000fd5b505050506040513d601f19601f820116820180604052508101906104f8919061149e565b50604080516001600160a01b0385811682526020820185905283168183015290517e1a143d5b175701cb3246058ffac3d63945192075a926ff73a19930f09d587a9181900360600190a1505050565b61054f610ed1565b6105596000611011565b565b610563610ed1565b61056f60036000611103565b60005b8181101561064b57600083838381811061058e5761058e6114bb565b90506020028101906105a091906114d1565b6105ae906020810190611438565b6001600160a01b0316036105f95760405162461bcd60e51b815260206004820152600d60248201526c24b73b30b634b2103a37b5b2b760991b60448201526064015b60405180910390fd5b600383838381811061060d5761060d6114bb565b905060200281019061061f91906114d1565b8154600181018355600092835260209092209091600602016106418282611601565b5050600101610572565b5080156107245781816000818110610665576106656114bb565b905060200281019061067791906114d1565b610685906020810190611438565b600080546001600160a01b0319166001600160a01b039290921691909117815582908290816106b6576106b66114bb565b90506020028101906106c891906114d1565b6040013560045581816000816106e0576106e06114bb565b90506020028101906106f291906114d1565b60600135600555818160008161070a5761070a6114bb565b905060200281019061071c91906114d1565b602001356006555b7f4a1c5fa67087e2fd48fd8326403ae89145916ce14916b3b926a66022585a69f0828260405161075592919061170a565b60405180910390a15050565b7f9016d09d72d40fdae2fd8ceac6b6234c7706214fd39c1cd1e609a0528c199300546001600160a01b031690565b60606003805480602002602001604051908101604052809291908181526020016000905b828210156108d25760008481526020908190206040805160c0810182526006860290920180546001600160a01b03168352600181015483850152600281015483830152600381015460608401526004810180548351818702810187019094528084529394919360808601939283018282801561085857602002820191906000526020600020905b81546001600160a01b0316815260019091019060200180831161083a575b50505050508152602001600582018054806020026020016040519081016040528092919081815260200182805480156108ba57602002820191906000526020600020905b81546001600160a01b0316815260019091019060200180831161089c575b505050505081525050815260200190600101906107b3565b50505050905090565b336108e4610761565b6001600160a01b0316148061090857503360009081526002602052604090205460ff165b6109455760405162461bcd60e51b815260206004820152600e60248201526d139bdd08185d5d1a1bdc9a5e995960921b60448201526064016105f0565b60006006541161098e5760405162461bcd60e51b8152602060048201526014602482015273149d5b195cc81b9bdd0818dbdb999a59dd5c995960621b60448201526064016105f0565b60065460055461099e9190611472565b42106109e25760405162461bcd60e51b8152602060048201526013602482015272151a5b59481dda5b991bddc8195e1c1a5c9959606a1b60448201526064016105f0565b600454821115610a2a5760405162461bcd60e51b8152602060048201526013602482015272125b9cdd59999a58da595b9d08189d5919d95d606a1b60448201526064016105f0565b610a3381610f03565b610a775760405162461bcd60e51b8152602060048201526015602482015274149958da5c1a595b9d081b9bdd08185b1b1bddd959605a1b60448201526064016105f0565b6001546001600160a01b0316610acf5760405162461bcd60e51b815260206004820152601860248201527f5370656e64696e67206163636f756e74206e6f7420736574000000000000000060448201526064016105f0565b600054600154604051636eb1769f60e11b81526001600160a01b0391821660048201523060248201528492919091169063dd62ed3e90604401602060405180830381865afa158015610b25573d6000803e3d6000fd5b505050506040513d601f19601f82011682018060405250810190610b499190611485565b1015610b8b5760405162461bcd60e51b8152602060048201526011602482015270416c6c6f77616e636520746f6f206c6f7760781b60448201526064016105f0565b6000546001546040516370a0823160e01b81526001600160a01b039182166004820152849291909116906370a0823190602401602060405180830381865afa158015610bdb573d6000803e3d6000fd5b505050506040513d601f19601f82011682018060405250810190610bff9190611485565b1015610c445760405162461bcd60e51b8152602060048201526014602482015273496e73756666696369656e742062616c616e636560601b60448201526064016105f0565b8160046000828254610c5691906117ef565b90915550506000546001546040516323b872dd60e01b81526001600160a01b0391821660048201528382166024820152604481018590529116906323b872dd906064016020604051808303816000875af1158015610cb8573d6000803e3d6000fd5b505050506040513d601f19601f82011682018060405250810190610cdc919061149e565b506040518281526001600160a01b0382169033907ff30792813cbed2eab34713301b57e17b9341cc7d08dbd9bb0c972a9accde97a19060200160405180910390a35050565b60038181548110610d3157600080fd5b600091825260209091206006909102018054600182015460028301546003909301546001600160a01b039092169350919084565b6000610d6f611082565b805490915060ff600160401b820416159067ffffffffffffffff16600081158015610d975750825b905060008267ffffffffffffffff166001148015610db45750303b155b905081158015610dc2575080155b15610de05760405163f92ee8a960e01b815260040160405180910390fd5b845467ffffffffffffffff191660011785558315610e0a57845460ff60401b1916600160401b1785555b610e13876110ab565b600080546001600160a01b03808b166001600160a01b03199283161790925560018054928916929091169190911790558315610e8957845460ff60401b19168555604051600181527fc7f505b2f371ae2175ee4913f4499e1f2633a7b5936321eed1cdaeb6115181d29060200160405180910390a15b5050505050505050565b610e9b610ed1565b6001600160a01b038116610ec557604051631e4fbdf760e01b8152600060048201526024016105f0565b610ece81611011565b50565b33610eda610761565b6001600160a01b0316146105595760405163118cdaa760e01b81523360048201526024016105f0565b6003546000908103610f1757506001919050565b60006003600081548110610f2d57610f2d6114bb565b9060005260206000209060060201905060005b6005820154811015610f9757836001600160a01b0316826005018281548110610f6b57610f6b6114bb565b6000918252602090912001546001600160a01b031603610f8f575060009392505050565b600101610f40565b506004810154600003610fad5750600192915050565b60005b600482015481101561100757836001600160a01b0316826004018281548110610fdb57610fdb6114bb565b6000918252602090912001546001600160a01b031603610fff575060019392505050565b600101610fb0565b5060009392505050565b7f9016d09d72d40fdae2fd8ceac6b6234c7706214fd39c1cd1e609a0528c19930080546001600160a01b031981166001600160a01b03848116918217845560405192169182907f8be0079c531659141344cd1fd0a4f28419497f9722a3daafe3b4186f6b6457e090600090a3505050565b6000807ff0c57e16840df040f15088dc2f81fe391c3923bec73e23a9662efc9c229c6a00610477565b6110b36110bc565b610ece816110e1565b6110c46110e9565b61055957604051631afcd79f60e31b815260040160405180910390fd5b610e9b6110bc565b60006110f3611082565b54600160401b900460ff16919050565b5080546000825560060290600052602060002090810190610ece91905b808211156111715780546001600160a01b0319168155600060018201819055600282018190556003820181905561115a6004830182611175565b611168600583016000611175565b50600601611120565b5090565b5080546000825590600052602060002090810190610ece91905b80821115611171576000815560010161118f565b6001600160a01b0381168114610ece57600080fd5b8015158114610ece57600080fd5b600080604083850312156111d957600080fd5b82356111e4816111a3565b915060208301356111f4816111b8565b809150509250929050565b6000806040838503121561121257600080fd5b8235915060208301356111f4816111a3565b60008060006060848603121561123957600080fd5b8335611244816111a3565b925060208401359150604084013561125b816111a3565b809150509250925092565b6000806020838503121561127957600080fd5b823567ffffffffffffffff8082111561129157600080fd5b818501915085601f8301126112a557600080fd5b8135818111156112b457600080fd5b8660208260051b85010111156112c957600080fd5b60209290920196919550909350505050565b60008151808452602080850194506020840160005b838110156113155781516001600160a01b0316875295820195908201906001016112f0565b509495945050505050565b600060208083018184528085518083526040925060408601915060408160051b87010184880160005b838110156113d157888303603f19018552815180516001600160a01b03168452878101518885015286810151878501526060808201519085015260808082015160c0828701819052919061139f838801826112db565b9250505060a080830151925085820381870152506113bd81836112db565b968901969450505090860190600101611349565b509098975050505050505050565b6000602082840312156113f157600080fd5b5035919050565b60008060006060848603121561140d57600080fd5b8335611418816111a3565b92506020840135611428816111a3565b9150604084013561125b816111a3565b60006020828403121561144a57600080fd5b8135611455816111a3565b9392505050565b634e487b7160e01b600052601160045260246000fd5b808201808211156104775761047761145c565b60006020828403121561149757600080fd5b5051919050565b6000602082840312156114b057600080fd5b8151611455816111b8565b634e487b7160e01b600052603260045260246000fd5b6000823560be198336030181126114e757600080fd5b9190910192915050565b60008135610477816111a3565b6000808335601e1984360301811261151557600080fd5b83018035915067ffffffffffffffff82111561153057600080fd5b6020019150600581901b360382131561154857600080fd5b9250929050565b634e487b7160e01b600052604160045260246000fd5b67ffffffffffffffff83111561157d5761157d61154f565b600160401b8311156115915761159161154f565b8054838255808410156115c8576000828152602081208581019083015b808210156115c4578282556001820191506115ae565b5050505b5060008181526020812083915b858110156115f9576115e6836114f1565b82820155602092909201916001016115d5565b505050505050565b813561160c816111a3565b81546001600160a01b0319166001600160a01b039190911617815560208201356001820155604082013560028201556060820135600382015561165260808301836114fe565b611660818360048601611565565b505061166f60a08301836114fe565b61167d818360058601611565565b50505050565b6000808335601e1984360301811261169a57600080fd5b830160208101925035905067ffffffffffffffff8111156116ba57600080fd5b8060051b360382131561154857600080fd5b8183526000602080850194508260005b858110156113155781356116ef816111a3565b6001600160a01b0316875295820195908201906001016116dc565b60208082528181018390526000906040808401600586901b850182018785805b898110156117e057888403603f190185528235368c900360be1901811261174f578283fd5b8b0160c0813561175e816111a3565b6001600160a01b031686528189013589870152878201358887015260608083013590870152608061179181840184611683565b83838a01526117a3848a0182846116cc565b935050505060a06117b681840184611683565b9350878303828901526117ca8385836116cc565b988b01989750505093880193505060010161172a565b50919998505050505050505050565b818103818111156104775761047761145c56fea2646970667358221220b8b2f77096acfdaf1a9d7939c09a9ebb3d38dc47c0253a5246c02f64c1be25b364736f6c63430008160033",
  "linkReferences": {},
  "deployedLinkReferences": {}
}