{"contracts-src/ClientAgentVault.sol":{"ClientAgentVault":{"abi":[{"inputs":[{"internalType":"address","name":"_settlementToken","type":"address"},{"internalType":"address","name":"_admin","type":"address"}],"stateMutability":"nonpayable","type":"constructor"},{"inputs":[{"internalType":"address","name":"owner","type":"address"}],"name":"OwnableInvalidOwner","type":"error"},{"inputs":[{"internalType":"address","name":"account","type":"address"}],"name":"OwnableUnauthorizedAccount","type":"error"},{"anonymous":false,"inputs":[{"indexed":true,"internalType":"address","name":"previousOwner","type":"address"},{"indexed":true,"internalType":"address","name":"newOwner","type":"address"}],"name":"OwnershipTransferred","type":"event"},{"anonymous":false,"inputs":[{"components":[{"internalType":"uint256","name":"timeWindow","type":"uint256"},{"internalType":"uint256","name":"budget","type":"uint256"},{"internalType":"uint256","name":"initialWindowStartTime","type":"uint256"},{"internalType":"address[]","name":"targetProviders","type":"address[]"}],"indexed":false,"internalType":"struct ClientAgentVault.SpendingRule[]","name":"rules","type":"tuple[]"}],"name":"SpendingRulesConfigured","type":"event"},{"anonymous":false,"inputs":[{"indexed":false,"internalType":"address","name":"token","type":"address"},{"indexed":false,"internalType":"uint256","name":"amount","type":"uint256"},{"indexed":false,"internalType":"address","name":"recipient","type":"address"}],"name":"Withdrawal","type":"event"},{"inputs":[{"internalType":"uint256","name":"amount","type":"uint256"},{"internalType":"address","name":"provider","type":"address"}],"name":"checkSpendAllowed","outputs":[{"internalType":"bool","name":"","type":"bool"}],"stateMutability":"view","type":"function"},{"inputs":[{"components":[{"internalType":"uint256","name":"timeWindow","type":"uint256"},{"internalType":"uint256","name":"budget","type":"uint256"},{"internalType":"uint256","name":"initialWindowStartTime","type":"uint256"},{"internalType":"address[]","name":"targetProviders","type":"address[]"}],"internalType":"struct ClientAgentVault.SpendingRule[]","name":"rules","type":"tuple[]"}],"name":"configureSpendingRules","outputs":[],"stateMutability":"nonpayable","type":"function"},{"inputs":[],"name":"currentBudget","outputs":[{"internalType":"uint256","name":"","type":"uint256"}],"stateMutability":"view","type":"function"},{"inputs":[],"name":"currentWindowDuration","outputs":[{"internalType":"uint256","name":"","type":"uint256"}],"stateMutability":"view","type":"function"},{"inputs":[],"name":"currentWindowStart","outputs":[{"internalType":"uint256","name":"","type":"uint256"}],"stateMutability":"view","type":"function"},{"inputs":[{"internalType":"uint256","name":"amount","type":"uint256"},{"internalType":"address","name":"recipient","type":"address"}],"name":"executeSpend","outputs":[],"stateMutability":"nonpayable","type":"function"},{"inputs":[],"name":"getSpendingRules","outputs":[{"components":[{"internalType":"uint256","name":"timeWindow","type":"uint256"},{"internalType":"uint256","name":"budget","type":"uint256"},{"internalType":"uint256","name":"initialWindowStartTime","type":"uint256"},{"internalType":"address[]","name":"targetProviders","type":"address[]"}],"internalType":"struct ClientAgentVault.SpendingRule[]","name":"","type":"tuple[]"}],"stateMutability":"view","type":"function"},{"inputs":[],"name":"owner","outputs":[{"internalType":"address","name":"","type":"address"}],"stateMutability":"view","type":"function"},{"inputs":[],"name":"renounceOwnership","outputs":[],"stateMutability":"nonpayable","type":"function"},{"inputs":[],"name":"settlementToken","outputs":[{"internalType":"contract IERC20","name":"","type":"address"}],"stateMutability":"view","type":"function"},{"inputs":[{"internalType":"uint256","name":"","type":"uint256"}],"name":"spendingRules","outputs":[{"internalType":"uint256","name":"timeWindow","type":"uint256"},{"internalType":"uint256","name":"budget","type":"uint256"},{"internalType":"uint256","name":"initialWindowStartTime","type":"uint256"}],"stateMutability":"view","type":"function"},{"inputs":[{"internalType":"address","name":"newOwner","type":"address"}],"name":"transferOwnership","outputs":[],"stateMutability":"nonpayable","type":"function"},{"inputs":[{"internalType":"address","name":"token","type":"address"},{"internalType":"uint256","name":"amount","type":"uint256"},{"internalType":"address","name":"recipient","type":"address"}],"name":"withdraw","outputs":[],"stateMutability":"nonpayable","type":"function"}],"evm":{"bytecode":{"linkReferences":{},"object":"60a060405234801561001057600080fd5b50604051610f15380380610f1583398101604081905261002f916100e6565b806001600160a01b03811661005e57604051631e4fbdf760e01b81526000600482015260240160405180910390fd5b6100678161007a565b50506001600160a01b0316608052610119565b600080546001600160a01b038381166001600160a01b0319831681178455604051919092169283917f8be0079c531659141344cd1fd0a4f28419497f9722a3daafe3b4186f6b6457e09190a35050565b80516001600160a01b03811681146100e157600080fd5b919050565b600080604083850312156100f957600080fd5b610102836100ca565b9150610110602084016100ca565b90509250929050565b608051610dda61013b6000396000818161015101526107050152610dda6000f3fe608060405234801561001057600080fd5b50600436106100cf5760003560e01c80637b9e618d1161008c578063ac8a618711610066578063ac8a6187146101a5578063b5a15bfe146101ba578063b5b9a519146101cd578063f2fde38b146101fb57600080fd5b80637b9e618d1461014c5780638da5cb5b1461018b5780638f09da641461019c57600080fd5b806313bc9e68146100d457806339c3856f146100f0578063579abdd01461011357806369328dec1461011c5780636eb00ed114610131578063715018a614610144575b600080fd5b6100dd60035481565b6040519081526020015b60405180910390f35b6101036100fe3660046108fa565b61020e565b60405190151581526020016100e7565b6100dd60045481565b61012f61012a36600461092a565b61032f565b005b61012f61013f36600461096c565b6103f9565b61012f61052c565b6101737f000000000000000000000000000000000000000000000000000000000000000081565b6040516001600160a01b0390911681526020016100e7565b6000546001600160a01b0316610173565b6100dd60025481565b6101ad610540565b6040516100e791906109e1565b61012f6101c83660046108fa565b61061f565b6101e06101db366004610aa0565b610777565b604080519384526020840192909252908201526060016100e7565b61012f610209366004610ab9565b6107aa565b60006004546003546102209190610af3565b421061022e57506000610329565b60025483111561024057506000610329565b6001541580159061027957506000600160008154811061026257610262610b06565b906000526020600020906004020160030180549050115b15610325576000805b600160008154811061029657610296610b06565b90600052602060002090600402016003018054905081101561031d57836001600160a01b031660016000815481106102d0576102d0610b06565b906000526020600020906004020160030182815481106102f2576102f2610b06565b6000918252602090912001546001600160a01b031603610315576001915061031d565b600101610282565b509050610329565b5060015b92915050565b6103376107e8565b60405163a9059cbb60e01b81526001600160a01b0382811660048301526024820184905284169063a9059cbb906044016020604051808303816000875af1158015610386573d6000803e3d6000fd5b505050506040513d601f19601f820116820180604052508101906103aa9190610b1c565b50604080516001600160a01b0385811682526020820185905283168183015290517e1a143d5b175701cb3246058ffac3d63945192075a926ff73a19930f09d587a9181900360600190a1505050565b6104016107e8565b61040d60016000610865565b60005b8181101561046a57600183838381811061042c5761042c610b06565b905060200281019061043e9190610b3e565b8154600181018355600092835260209092209091600402016104608282610b81565b5050600101610410565b5080156104ef578181600081811061048457610484610b06565b90506020028101906104969190610b3e565b6020013560025581816000816104ae576104ae610b06565b90506020028101906104c09190610b3e565b6040013560035581816000816104d8576104d8610b06565b90506020028101906104ea9190610b3e565b356004555b7f42b99aa79657155d1a90414e83121987856d713fab557e72ed69593d99aab9078282604051610520929190610cb5565b60405180910390a15050565b6105346107e8565b61053e6000610815565b565b60606001805480602002602001604051908101604052809291908181526020016000905b828210156106165783829060005260206000209060040201604051806080016040529081600082015481526020016001820154815260200160028201548152602001600382018054806020026020016040519081016040528092919081815260200182805480156105fe57602002820191906000526020600020905b81546001600160a01b031681526001909101906020018083116105e0575b50505050508152505081526020019060010190610564565b50505050905090565b6106276107e8565b6004546003546106379190610af3565b42106106805760405162461bcd60e51b8152602060048201526013602482015272151a5b59481dda5b991bddc8195e1c1a5c9959606a1b60448201526064015b60405180910390fd5b6002548211156106c85760405162461bcd60e51b8152602060048201526013602482015272125b9cdd59999a58da595b9d08189d5919d95d606a1b6044820152606401610677565b81600260008282546106da9190610d91565b909155505060405163a9059cbb60e01b81526001600160a01b038281166004830152602482018490527f0000000000000000000000000000000000000000000000000000000000000000169063a9059cbb906044016020604051808303816000875af115801561074e573d6000803e3d6000fd5b505050506040513d601f19601f820116820180604052508101906107729190610b1c565b505050565b6001818154811061078757600080fd5b600091825260209091206004909102018054600182015460029092015490925083565b6107b26107e8565b6001600160a01b0381166107dc57604051631e4fbdf760e01b815260006004820152602401610677565b6107e581610815565b50565b6000546001600160a01b0316331461053e5760405163118cdaa760e01b8152336004820152602401610677565b600080546001600160a01b038381166001600160a01b0319831681178455604051919092169283917f8be0079c531659141344cd1fd0a4f28419497f9722a3daafe3b4186f6b6457e09190a35050565b50805460008255600402906000526020600020908101906107e591905b808211156108b357600080825560018201819055600282018190556108aa60038301826108b7565b50600401610882565b5090565b50805460008255906000526020600020908101906107e591905b808211156108b357600081556001016108d1565b6001600160a01b03811681146107e557600080fd5b6000806040838503121561090d57600080fd5b82359150602083013561091f816108e5565b809150509250929050565b60008060006060848603121561093f57600080fd5b833561094a816108e5565b9250602084013591506040840135610961816108e5565b809150509250925092565b6000806020838503121561097f57600080fd5b823567ffffffffffffffff8082111561099757600080fd5b818501915085601f8301126109ab57600080fd5b8135818111156109ba57600080fd5b8660208260051b85010111156109cf57600080fd5b60209290920196919550909350505050565b600060208083018184528085518083526040925060408601915060408160051b8701018488016000805b84811015610a9157898403603f19018652825180518552888101518986015287810151888601526060908101516080918601829052805191860182905289019060a086019084905b80821015610a7c5783516001600160a01b03168352928b0192918b019160019190910190610a53565b50509689019694505091870191600101610a0b565b50919998505050505050505050565b600060208284031215610ab257600080fd5b5035919050565b600060208284031215610acb57600080fd5b8135610ad6816108e5565b9392505050565b634e487b7160e01b600052601160045260246000fd5b8082018082111561032957610329610add565b634e487b7160e01b600052603260045260246000fd5b600060208284031215610b2e57600080fd5b81518015158114610ad657600080fd5b60008235607e19833603018112610b5457600080fd5b9190910192915050565b634e487b7160e01b600052604160045260246000fd5b60008135610329816108e5565b813581556001602080840135600184015560408401356002840155600383016060850135601e19863603018112610bb757600080fd5b8501803567ffffffffffffffff811115610bd057600080fd5b6020820191508060051b3603821315610be857600080fd5b68010000000000000000811115610c0157610c01610b5e565b825481845580821015610c36576000848152602081208381019083015b80821015610c325782825590880190610c1e565b5050505b50600092835260208320925b81811015610c6257610c5383610b74565b84820155918401918501610c42565b5050505050505050565b8183526000602080850194508260005b85811015610caa578135610c8f816108e5565b6001600160a01b031687529582019590820190600101610c7c565b509495945050505050565b60208082528181018390526000906040808401600586811b8601830188865b89811015610d8257888303603f190185528135368c9003607e19018112610cfa57600080fd5b8b018035845287810135888501528681013587850152608060608083013536849003601e19018112610d2b57600080fd5b90920189810192903567ffffffffffffffff811115610d4957600080fd5b80881b3603841315610d5a57600080fd5b8282880152610d6c8388018286610c6c565b988b019896505050928801925050600101610cd4565b50909998505050505050505050565b8181038181111561032957610329610add56fea2646970667358221220779ff4938ee24768c5b35cebad659057fed12e6e3d56a28312dd2c41906efb8e64736f6c63430008160033","opcodes":"PUSH1 0xA0 PUSH1 0x40 MSTORE CALLVALUE DUP1 ISZERO PUSH2 0x10 JUMPI PUSH1 0x0 DUP1 REVERT JUMPDEST POP PUSH1 0x40 MLOAD PUSH2 0xF15 CODESIZE SUB DUP1 PUSH2 0xF15 DUP4 CODECOPY DUP2 ADD PUSH1 0x40 DUP2 SWAP1 MSTORE PUSH2 0x2F SWAP2 PUSH2 0xE6 JUMP JUMPDEST DUP1 PUSH1 0x1 PUSH1 0x1 PUSH1 0xA0 SHL SUB DUP2 AND PUSH2 0x5E JUMPI PUSH1 0x40 MLOAD PUSH4 0x1E4FBDF7 PUSH1 0xE0 SHL DUP2 MSTORE PUSH1 0x0 PUSH1 0x4 DUP3 ADD MSTORE PUSH1 0x24 ADD PUSH1 0x40 MLOAD DUP1 SWAP2 SUB SWAP1 REVERT JUMPDEST PUSH2 0x67 DUP2 PUSH2 0x7A JUMP JUMPDEST POP POP PUSH1 0x1 PUSH1 0x1 PUSH1 0xA0 SHL SUB AND PUSH1 0x80 MSTORE PUSH2 0x119 JUMP JUMPDEST PUSH1 0x0 DUP1 SLOAD PUSH1 0x1 PUSH1 0x1 PUSH1 0xA0 SHL SUB DUP4 DUP2 AND PUSH1 0x1 PUSH1 0x1 PUSH1 0xA0 SHL SUB NOT DUP4 AND DUP2 OR DUP5 SSTORE PUSH1 0x40 MLOAD SWAP2 SWAP1 SWAP3 AND SWAP3 DUP4 SWAP2 PUSH32 0x8BE0079C531659141344CD1FD0A4F28419497F9722A3DAAFE3B4186F6B6457E0 SWAP2 SWAP1 LOG3 POP POP JUMP JUMPDEST DUP1 MLOAD PUSH1 0x1 PUSH1 0x1 PUSH1 0xA0 SHL SUB DUP2 AND DUP2 EQ PUSH2 0xE1 JUMPI PUSH1 0x0 DUP1 REVERT JUMPDEST SWAP2 SWAP1 POP JUMP JUMPDEST PUSH1 0x0 DUP1 PUSH1 0x40 DUP4 DUP6 SUB SLT ISZERO PUSH2 0xF9 JUMPI PUSH1 0x0 DUP1 REVERT JUMPDEST PUSH2 0x102 DUP4 PUSH2 0xCA JUMP JUMPDEST SWAP2 POP PUSH2 0x110 PUSH1 0x20 DUP5 ADD PUSH2 0xCA JUMP JUMPDEST SWAP1 POP SWAP3 POP SWAP3 SWAP1 POP JUMP JUMPDEST PUSH1 0x80 MLOAD PUSH2 0xDDA PUSH2 0x13B PUSH1 0x0 CODECOPY PUSH1 0x0 DUP2 DUP2 PUSH2 0x151 ADD MSTORE PUSH2 0x705 ADD MSTORE PUSH2 0xDDA PUSH1 0x0 RETURN INVALID PUSH1 0x80 PUSH1 0x40 MSTORE CALLVALUE DUP1 ISZERO PUSH2 0x10 JUMPI PUSH1 0x0 DUP1 REVERT JUMPDEST POP PUSH1 0x4 CALLDATASIZE LT PUSH2 0xCF JUMPI PUSH1 0x0 CALLDATALOAD PUSH1 0xE0 SHR DUP1 PUSH4 0x7B9E618D GT PUSH2 0x8C JUMPI DUP1 PUSH4 0xAC8A6187 GT PUSH2 0x66 JUMPI DUP1 PUSH4 0xAC8A6187 EQ PUSH2 0x1A5 JUMPI DUP1 PUSH4 0xB5A15BFE EQ PUSH2 0x1BA JUMPI DUP1 PUSH4 0xB5B9A519 EQ PUSH2 0x1CD JUMPI DUP1 PUSH4 0xF2FDE38B EQ PUSH2 0x1FB JUMPI PUSH1 0x0 DUP1 REVERT JUMPDEST DUP1 PUSH4 0x7B9E618D EQ PUSH2 0x14C JUMPI DUP1 PUSH4 0x8DA5CB5B EQ PUSH2 0x18B JUMPI DUP1 PUSH4 0x8F09DA64 EQ PUSH2 0x19C JUMPI PUSH1 0x0 DUP1 REVERT JUMPDEST DUP1 PUSH4 0x13BC9E68 EQ PUSH2 0xD4 JUMPI DUP1 PUSH4 0x39C3856F EQ PUSH2 0xF0 JUMPI DUP1 PUSH4 0x579ABDD0 EQ PUSH2 0x113 JUMPI DUP1 PUSH4 0x69328DEC EQ PUSH2 0x11C JUMPI DUP1 PUSH4 0x6EB00ED1 EQ PUSH2 0x131 JUMPI DUP1 PUSH4 0x715018A6 EQ PUSH2 0x144 JUMPI JUMPDEST PUSH1 0x0 DUP1 REVERT JUMPDEST PUSH2 0xDD PUSH1 0x3 SLOAD DUP2 JUMP JUMPDEST PUSH1 0x40 MLOAD SWAP1 DUP2 MSTORE PUSH1 0x20 ADD JUMPDEST PUSH1 0x40 MLOAD DUP1 SWAP2 SUB SWAP1 RETURN JUMPDEST PUSH2 0x103 PUSH2 0xFE CALLDATASIZE PUSH1 0x4 PUSH2 0x8FA JUMP JUMPDEST PUSH2 0x20E JUMP JUMPDEST PUSH1 0x40 MLOAD SWAP1 ISZERO ISZERO DUP2 MSTORE PUSH1 0x20 ADD PUSH2 0xE7 JUMP JUMPDEST PUSH2 0xDD PUSH1 0x4 SLOAD DUP2 JUMP JUMPDEST PUSH2 0x12F PUSH2 0x12A CALLDATASIZE PUSH1 0x4 PUSH2 0x92A JUMP JUMPDEST PUSH2 0x32F JUMP JUMPDEST STOP JUMPDEST PUSH2 0x12F PUSH2 0x13F CALLDATASIZE PUSH1 0x4 PUSH2 0x96C JUMP JUMPDEST PUSH2 0x3F9 JUMP JUMPDEST PUSH2 0x12F PUSH2 0x52C JUMP JUMPDEST PUSH2 0x173 PUSH32 0x0 DUP2 JUMP JUMPDEST PUSH1 0x40 MLOAD PUSH1 0x1 PUSH1 0x1 PUSH1 0xA0 SHL SUB SWAP1 SWAP2 AND DUP2 MSTORE PUSH1 0x20 ADD PUSH2 0xE7 JUMP JUMPDEST PUSH1 0x0 SLOAD PUSH1 0x1 PUSH1 0x1 PUSH1 0xA0 SHL SUB AND PUSH2 0x173 JUMP JUMPDEST PUSH2 0xDD PUSH1 0x2 SLOAD DUP2 JUMP JUMPDEST PUSH2 0x1AD PUSH2 0x540 JUMP JUMPDEST PUSH1 0x40 MLOAD PUSH2 0xE7 SWAP2 SWAP1 PUSH2 0x9E1 JUMP JUMPDEST PUSH2 0x12F PUSH2 0x1C8 CALLDATASIZE PUSH1 0x4 PUSH2 0x8FA JUMP JUMPDEST PUSH2 0x61F JUMP JUMPDEST PUSH2 0x1E0 PUSH2 0x1DB CALLDATASIZE PUSH1 0x4 PUSH2 0xAA0 JUMP JUMPDEST PUSH2 0x777 JUMP JUMPDEST PUSH1 0x40 DUP1 MLOAD SWAP4 DUP5 MSTORE PUSH1 0x20 DUP5 ADD SWAP3 SWAP1 SWAP3 MSTORE SWAP1 DUP3 ADD MSTORE PUSH1 0x60 ADD PUSH2 0xE7 JUMP JUMPDEST PUSH2 0x12F PUSH2 0x209 CALLDATASIZE PUSH1 0x4 PUSH2 0xAB9 JUMP JUMPDEST PUSH2 0x7AA JUMP JUMPDEST PUSH1 0x0 PUSH1 0x4 SLOAD PUSH1 0x3 SLOAD PUSH2 0x220 SWAP2 SWAP1 PUSH2 0xAF3 JUMP JUMPDEST TIMESTAMP LT PUSH2 0x22E JUMPI POP PUSH1 0x0 PUSH2 0x329 JUMP JUMPDEST PUSH1 0x2 SLOAD DUP4 GT ISZERO PUSH2 0x240 JUMPI POP PUSH1 0x0 PUSH2 0x329 JUMP JUMPDEST PUSH1 0x1 SLOAD ISZERO DUP1 ISZERO SWAP1 PUSH2 0x279 JUMPI POP PUSH1 0x0 PUSH1 0x1 PUSH1 0x0 DUP2 SLOAD DUP2 LT PUSH2 0x262 JUMPI PUSH2 0x262 PUSH2 0xB06 JUMP JUMPDEST SWAP1 PUSH1 0x0 MSTORE PUSH1 0x20 PUSH1 0x0 KECCAK256 SWAP1 PUSH1 0x4 MUL ADD PUSH1 0x3 ADD DUP1 SLOAD SWAP1 POP GT JUMPDEST ISZERO PUSH2 0x325 JUMPI PUSH1 0x0 DUP1 JUMPDEST PUSH1 0x1 PUSH1 0x0 DUP2 SLOAD DUP2 LT PUSH2 0x296 JUMPI PUSH2 0x296 PUSH2 0xB06 JUMP JUMPDEST SWAP1 PUSH1 0x0 MSTORE PUSH1 0x20 PUSH1 0x0 KECCAK256 SWAP1 PUSH1 0x4 MUL ADD PUSH1 0x3 ADD DUP1 SLOAD SWAP1 POP DUP2 LT ISZERO PUSH2 0x31D JUMPI DUP4 PUSH1 0x1 PUSH1 0x1 PUSH1 0xA0 SHL SUB AND PUSH1 0x1 PUSH1 0x0 DUP2 SLOAD DUP2 LT PUSH2 0x2D0 JUMPI PUSH2 0x2D0 PUSH2 0xB06 JUMP JUMPDEST SWAP1 PUSH1 0x0 MSTORE PUSH1 0x20 PUSH1 0x0 KECCAK256 SWAP1 PUSH1 0x4 MUL ADD PUSH1 0x3 ADD DUP3 DUP2 SLOAD DUP2 LT PUSH2 0x2F2 JUMPI PUSH2 0x2F2 PUSH2 0xB06 JUMP JUMPDEST PUSH1 0x0 SWAP2 DUP3 MSTORE PUSH1 0x20 SWAP1 SWAP2 KECCAK256 ADD SLOAD PUSH1 0x1 PUSH1 0x1 PUSH1 0xA0 SHL SUB AND SUB PUSH2 0x315 JUMPI PUSH1 0x1 SWAP2 POP PUSH2 0x31D JUMP JUMPDEST PUSH1 0x1 ADD PUSH2 0x282 JUMP JUMPDEST POP SWAP1 POP PUSH2 0x329 JUMP JUMPDEST POP PUSH1 0x1 JUMPDEST SWAP3 SWAP2 POP POP JUMP JUMPDEST PUSH2 0x337 PUSH2 0x7E8 JUMP JUMPDEST PUSH1 0x40 MLOAD PUSH4 0xA9059CBB PUSH1 0xE0 SHL DUP2 MSTORE PUSH1 0x1 PUSH1 0x1 PUSH1 0xA0 SHL SUB DUP3 DUP2 AND PUSH1 0x4 DUP4 ADD MSTORE PUSH1 0x24 DUP3 ADD DUP5 SWAP1 MSTORE DUP5 AND SWAP1 PUSH4 0xA9059CBB SWAP1 PUSH1 0x44 ADD PUSH1 0x20 PUSH1 0x40 MLOAD DUP1 DUP4 SUB DUP2 PUSH1 0x0 DUP8 GAS CALL ISZERO DUP1 ISZERO PUSH2 0x386 JUMPI RETURNDATASIZE PUSH1 0x0 DUP1 RETURNDATACOPY RETURNDATASIZE PUSH1 0x0 REVERT JUMPDEST POP POP POP POP PUSH1 0x40 MLOAD RETURNDATASIZE PUSH1 0x1F NOT PUSH1 0x1F DUP3 ADD AND DUP3 ADD DUP1 PUSH1 0x40 MSTORE POP DUP2 ADD SWAP1 PUSH2 0x3AA SWAP2 SWAP1 PUSH2 0xB1C JUMP JUMPDEST POP PUSH1 0x40 DUP1 MLOAD PUSH1 0x1 PUSH1 0x1 PUSH1 0xA0 SHL SUB DUP6 DUP2 AND DUP3 MSTORE PUSH1 0x20 DUP3 ADD DUP6 SWAP1 MSTORE DUP4 AND DUP2 DUP4 ADD MSTORE SWAP1 MLOAD PUSH31 0x1A143D5B175701CB3246058FFAC3D63945192075A926FF73A19930F09D587A SWAP2 DUP2 SWAP1 SUB PUSH1 0x60 ADD SWAP1 LOG1 POP POP POP JUMP JUMPDEST PUSH2 0x401 PUSH2 0x7E8 JUMP JUMPDEST PUSH2 0x40D PUSH1 0x1 PUSH1 0x0 PUSH2 0x865 JUMP JUMPDEST PUSH1 0x0 JUMPDEST DUP2 DUP2 LT ISZERO PUSH2 0x46A JUMPI PUSH1 0x1 DUP4 DUP4 DUP4 DUP2 DUP2 LT PUSH2 0x42C JUMPI PUSH2 0x42C PUSH2 0xB06 JUMP JUMPDEST SWAP1 POP PUSH1 0x20 MUL DUP2 ADD SWAP1 PUSH2 0x43E SWAP2 SWAP1 PUSH2 0xB3E JUMP JUMPDEST DUP2 SLOAD PUSH1 0x1 DUP2 ADD DUP4 SSTORE PUSH1 0x0 SWAP3 DUP4 MSTORE PUSH1 0x20 SWAP1 SWAP3 KECCAK256 SWAP1 SWAP2 PUSH1 0x4 MUL ADD PUSH2 0x460 DUP3 DUP3 PUSH2 0xB81 JUMP JUMPDEST POP POP PUSH1 0x1 ADD PUSH2 0x410 JUMP JUMPDEST POP DUP1 ISZERO PUSH2 0x4EF JUMPI DUP2 DUP2 PUSH1 0x0 DUP2 DUP2 LT PUSH2 0x484 JUMPI PUSH2 0x484 PUSH2 0xB06 JUMP JUMPDEST SWAP1 POP PUSH1 0x20 MUL DUP2 ADD SWAP1 PUSH2 0x496 SWAP2 SWAP1 PUSH2 0xB3E JUMP JUMPDEST PUSH1 0x20 ADD CALLDATALOAD PUSH1 0x2 SSTORE DUP2 DUP2 PUSH1 0x0 DUP2 PUSH2 0x4AE JUMPI PUSH2 0x4AE PUSH2 0xB06 JUMP JUMPDEST SWAP1 POP PUSH1 0x20 MUL DUP2 ADD SWAP1 PUSH2 0x4C0 SWAP2 SWAP1 PUSH2 0xB3E JUMP JUMPDEST PUSH1 0x40 ADD CALLDATALOAD PUSH1 0x3 SSTORE DUP2 DUP2 PUSH1 0x0 DUP2 PUSH2 0x4D8 JUMPI PUSH2 0x4D8 PUSH2 0xB06 JUMP JUMPDEST SWAP1 POP PUSH1 0x20 MUL DUP2 ADD SWAP1 PUSH2 0x4EA SWAP2 SWAP1 PUSH2 0xB3E JUMP JUMPDEST CALLDATALOAD PUSH1 0x4 SSTORE JUMPDEST PUSH32 0x42B99AA79657155D1A90414E83121987856D713FAB557E72ED69593D99AAB907 DUP3 DUP3 PUSH1 0x40 MLOAD PUSH2 0x520 SWAP3 SWAP2 SWAP1 PUSH2 0xCB5 JUMP JUMPDEST PUSH1 0x40 MLOAD DUP1 SWAP2 SUB SWAP1 LOG1 POP POP JUMP JUMPDEST PUSH2 0x534 PUSH2 0x7E8 JUMP JUMPDEST PUSH2 0x53E PUSH1 0x0 PUSH2 0x815 JUMP JUMPDEST JUMP JUMPDEST PUSH1 0x60 PUSH1 0x1 DUP1 SLOAD DUP1 PUSH1 0x20 MUL PUSH1 0x20 ADD PUSH1 0x40 MLOAD SWAP1 DUP2 ADD PUSH1 0x40 MSTORE DUP1 SWAP3 SWAP2 SWAP1 DUP2 DUP2 MSTORE PUSH1 0x20 ADD PUSH1 0x0 SWAP1 JUMPDEST DUP3 DUP3 LT ISZERO PUSH2 0x616 JUMPI DUP4 DUP3 SWAP1 PUSH1 0x0 MSTORE PUSH1 0x20 PUSH1 0x0 KECCAK256 SWAP1 PUSH1 0x4 MUL ADD PUSH1 0x40 MLOAD DUP1 PUSH1 0x80 ADD PUSH1 0x40 MSTORE SWAP1 DUP2 PUSH1 0x0 DUP3 ADD SLOAD DUP2 MSTORE PUSH1 0x20 ADD PUSH1 0x1 DUP3 ADD SLOAD DUP2 MSTORE PUSH1 0x20 ADD PUSH1 0x2 DUP3 ADD SLOAD DUP2 MSTORE PUSH1 0x20 ADD PUSH1 0x3 DUP3 ADD DUP1 SLOAD DUP1 PUSH1 0x20 MUL PUSH1 0x20 ADD PUSH1 0x40 MLOAD SWAP1 DUP2 ADD PUSH1 0x40 MSTORE DUP1 SWAP3 SWAP2 SWAP1 DUP2 DUP2 MSTORE PUSH1 0x20 ADD DUP3 DUP1 SLOAD DUP1 ISZERO PUSH2 0x5FE JUMPI PUSH1 0x20 MUL DUP3 ADD SWAP2 SWAP1 PUSH1 0x0 MSTORE PUSH1 0x20 PUSH1 0x0 KECCAK256 SWAP1 JUMPDEST DUP2 SLOAD PUSH1 0x1 PUSH1 0x1 PUSH1 0xA0 SHL SUB AND DUP2 MSTORE PUSH1 0x1 SWAP1 SWAP2 ADD SWAP1 PUSH1 0x20 ADD DUP1 DUP4 GT PUSH2 0x5E0 JUMPI JUMPDEST POP POP POP POP POP DUP2 MSTORE POP POP DUP2 MSTORE PUSH1 0x20 ADD SWAP1 PUSH1 0x1 ADD SWAP1 PUSH2 0x564 JUMP JUMPDEST POP POP POP POP SWAP1 POP SWAP1 JUMP JUMPDEST PUSH2 0x627 PUSH2 0x7E8 JUMP JUMPDEST PUSH1 0x4 SLOAD PUSH1 0x3 SLOAD PUSH2 0x637 SWAP2 SWAP1 PUSH2 0xAF3 JUMP JUMPDEST TIMESTAMP LT PUSH2 0x680 JUMPI PUSH1 0x40 MLOAD PUSH3 0x461BCD PUSH1 0xE5 SHL DUP2 MSTORE PUSH1 0x20 PUSH1 0x4 DUP3 ADD MSTORE PUSH1 0x13 PUSH1 0x24 DUP3 ADD MSTORE PUSH19 0x151A5B59481DDA5B991BDDC8195E1C1A5C9959 PUSH1 0x6A SHL PUSH1 0x44 DUP3 ADD MSTORE PUSH1 0x64 ADD JUMPDEST PUSH1 0x40 MLOAD DUP1 SWAP2 SUB SWAP1 REVERT JUMPDEST PUSH1 0x2 SLOAD DUP3 GT ISZERO PUSH2 0x6C8 JUMPI PUSH1 0x40 MLOAD PUSH3 0x461BCD PUSH1 0xE5 SHL DUP2 MSTORE PUSH1 0x20 PUSH1 0x4 DUP3 ADD MSTORE PUSH1 0x13 PUSH1 0x24 DUP3 ADD MSTORE PUSH19 0x125B9CDD59999A58DA595B9D08189D5919D95D PUSH1 0x6A SHL PUSH1 0x44 DUP3 ADD MSTORE PUSH1 0x64 ADD PUSH2 0x677 JUMP JUMPDEST DUP2 PUSH1 0x2 PUSH1 0x0 DUP3 DUP3 SLOAD PUSH2 0x6DA SWAP2 SWAP1 PUSH2 0xD91 JUMP JUMPDEST SWAP1 SWAP2 SSTORE POP POP PUSH1 0x40 MLOAD PUSH4 0xA9059CBB PUSH1 0xE0 SHL DUP2 MSTORE PUSH1 0x1 PUSH1 0x1 PUSH1 0xA0 SHL SUB DUP3 DUP2 AND PUSH1 0x4 DUP4 ADD MSTORE PUSH1 0x24 DUP3 ADD DUP5 SWAP1 MSTORE PUSH32 0x0 AND SWAP1 PUSH4 0xA9059CBB SWAP1 PUSH1 0x44 ADD PUSH1 0x20 PUSH1 0x40 MLOAD DUP1 DUP4 SUB DUP2 PUSH1 0x0 DUP8 GAS CALL ISZERO DUP1 ISZERO PUSH2 0x74E JUMPI RETURNDATASIZE PUSH1 0x0 DUP1 RETURNDATACOPY RETURNDATASIZE PUSH1 0x0 REVERT JUMPDEST POP POP POP POP PUSH1 0x40 MLOAD RETURNDATASIZE PUSH1 0x1F NOT PUSH1 0x1F DUP3 ADD AND DUP3 ADD DUP1 PUSH1 0x40 MSTORE POP DUP2 ADD SWAP1 PUSH2 0x772 SWAP2 SWAP1 PUSH2 0xB1C JUMP JUMPDEST POP POP POP JUMP JUMPDEST PUSH1 0x1 DUP2 DUP2 SLOAD DUP2 LT PUSH2 0x787 JUMPI PUSH1 0x0 DUP1 REVERT JUMPDEST PUSH1 0x0 SWAP2 DUP3 MSTORE PUSH1 0x20 SWAP1 SWAP2 KECCAK256 PUSH1 0x4 SWAP1 SWAP2 MUL ADD DUP1 SLOAD PUSH1 0x1 DUP3 ADD SLOAD PUSH1 0x2 SWAP1 SWAP3 ADD SLOAD SWAP1 SWAP3 POP DUP4 JUMP JUMPDEST PUSH2 0x7B2 PUSH2 0x7E8 JUMP JUMPDEST PUSH1 0x1 PUSH1 0x1 PUSH1 0xA0 SHL SUB DUP2 AND PUSH2 0x7DC JUMPI PUSH1 0x40 MLOAD PUSH4 0x1E4FBDF7 PUSH1 0xE0 SHL DUP2 MSTORE PUSH1 0x0 PUSH1 0x4 DUP3 ADD MSTORE PUSH1 0x24 ADD PUSH2 0x677 JUMP JUMPDEST PUSH2 0x7E5 DUP2 PUSH2 0x815 JUMP JUMPDEST POP JUMP JUMPDEST PUSH1 0x0 SLOAD PUSH1 0x1 PUSH1 0x1 PUSH1 0xA0 SHL SUB AND CALLER EQ PUSH2 0x53E JUMPI PUSH1 0x40 MLOAD PUSH4 0x118CDAA7 PUSH1 0xE0 SHL DUP2 MSTORE CALLER PUSH1 0x4 DUP3 ADD MSTORE PUSH1 0x24 ADD PUSH2 0x677 JUMP JUMPDEST PUSH1 0x0 DUP1 SLOAD PUSH1 0x1 PUSH1 0x1 PUSH1 0xA0 SHL SUB DUP4 DUP2 AND PUSH1 0x1 PUSH1 0x1 PUSH1 0xA0 SHL SUB NOT DUP4 AND DUP2 OR DUP5 SSTORE PUSH1 0x40 MLOAD SWAP2 SWAP1 SWAP3 AND SWAP3 DUP4 SWAP2 PUSH32 0x8BE0079C531659141344CD1FD0A4F28419497F9722A3DAAFE3B4186F6B6457E0 SWAP2 SWAP1 LOG3 POP POP JUMP JUMPDEST POP DUP1 SLOAD PUSH1 0x0 DUP3 SSTORE PUSH1 0x4 MUL SWAP1 PUSH1 0x0 MSTORE PUSH1 0x20 PUSH1 0x0 KECCAK256 SWAP1 DUP2 ADD SWAP1 PUSH2 0x7E5 SWAP2 SWAP1 JUMPDEST DUP1 DUP3 GT ISZERO PUSH2 0x8B3 JUMPI PUSH1 0x0 DUP1 DUP3 SSTORE PUSH1 0x1 DUP3 ADD DUP2 SWAP1 SSTORE PUSH1 0x2 DUP3 ADD DUP2 SWAP1 SSTORE PUSH2 0x8AA PUSH1 0x3 DUP4 ADD DUP3 PUSH2 0x8B7 JUMP JUMPDEST POP PUSH1 0x4 ADD PUSH2 0x882 JUMP JUMPDEST POP SWAP1 JUMP JUMPDEST POP DUP1 SLOAD PUSH1 0x0 DUP3 SSTORE SWAP1 PUSH1 0x0 MSTORE PUSH1 0x20 PUSH1 0x0 KECCAK256 SWAP1 DUP2 ADD SWAP1 PUSH2 0x7E5 SWAP2 SWAP1 JUMPDEST DUP1 DUP3 GT ISZERO PUSH2 0x8B3 JUMPI PUSH1 0x0 DUP2 SSTORE PUSH1 0x1 ADD PUSH2 0x8D1 JUMP JUMPDEST PUSH1 0x1 PUSH1 0x1 PUSH1 0xA0 SHL SUB DUP2 AND DUP2 EQ PUSH2 0x7E5 JUMPI PUSH1 0x0 DUP1 REVERT JUMPDEST PUSH1 0x0 DUP1 PUSH1 0x40 DUP4 DUP6 SUB SLT ISZERO PUSH2 0x90D JUMPI PUSH1 0x0 DUP1 REVERT JUMPDEST DUP3 CALLDATALOAD SWAP2 POP PUSH1 0x20 DUP4 ADD CALLDATALOAD PUSH2 0x91F DUP2 PUSH2 0x8E5 JUMP JUMPDEST DUP1 SWAP2 POP POP SWAP3 POP SWAP3 SWAP1 POP JUMP JUMPDEST PUSH1 0x0 DUP1 PUSH1 0x0 PUSH1 0x60 DUP5 DUP7 SUB SLT ISZERO PUSH2 0x93F JUMPI PUSH1 0x0 DUP1 REVERT JUMPDEST DUP4 CALLDATALOAD PUSH2 0x94A DUP2 PUSH2 0x8E5 JUMP JUMPDEST SWAP3 POP PUSH1 0x20 DUP5 ADD CALLDATALOAD SWAP2 POP PUSH1 0x40 DUP5 ADD CALLDATALOAD PUSH2 0x961 DUP2 PUSH2 0x8E5 JUMP JUMPDEST DUP1 SWAP2 POP POP SWAP3 POP SWAP3 POP SWAP3 JUMP JUMPDEST PUSH1 0x0 DUP1 PUSH1 0x20 DUP4 DUP6 SUB SLT ISZERO PUSH2 0x97F JUMPI PUSH1 0x0 DUP1 REVERT JUMPDEST DUP3 CALLDATALOAD PUSH8 0xFFFFFFFFFFFFFFFF DUP1 DUP3 GT ISZERO PUSH2 0x997 JUMPI PUSH1 0x0 DUP1 REVERT JUMPDEST DUP2 DUP6 ADD SWAP2 POP DUP6 PUSH1 0x1F DUP4 ADD SLT PUSH2 0x9AB JUMPI PUSH1 0x0 DUP1 REVERT JUMPDEST DUP2 CALLDATALOAD DUP2 DUP2 GT ISZERO PUSH2 0x9BA JUMPI PUSH1 0x0 DUP1 REVERT JUMPDEST DUP7 PUSH1 0x20 DUP3 PUSH1 0x5 SHL DUP6 ADD ADD GT ISZERO PUSH2 0x9CF JUMPI PUSH1 0x0 DUP1 REVERT JUMPDEST PUSH1 0x20 SWAP3 SWAP1 SWAP3 ADD SWAP7 SWAP2 SWAP6 POP SWAP1 SWAP4 POP POP POP POP JUMP JUMPDEST PUSH1 0x0 PUSH1 0x20 DUP1 DUP4 ADD DUP2 DUP5 MSTORE DUP1 DUP6 MLOAD DUP1 DUP4 MSTORE PUSH1 0x40 SWAP3 POP PUSH1 0x40 DUP7 ADD SWAP2 POP PUSH1 0x40 DUP2 PUSH1 0x5 SHL DUP8 ADD ADD DUP5 DUP9 ADD PUSH1 0x0 DUP1 JUMPDEST DUP5 DUP2 LT ISZERO PUSH2 0xA91 JUMPI DUP10 DUP5 SUB PUSH1 0x3F NOT ADD DUP7 MSTORE DUP3 MLOAD DUP1 MLOAD DUP6 MSTORE DUP9 DUP2 ADD MLOAD DUP10 DUP7 ADD MSTORE DUP8 DUP2 ADD MLOAD DUP9 DUP7 ADD MSTORE PUSH1 0x60 SWAP1 DUP2 ADD MLOAD PUSH1 0x80 SWAP2 DUP7 ADD DUP3 SWAP1 MSTORE DUP1 MLOAD SWAP2 DUP7 ADD DUP3 SWAP1 MSTORE DUP10 ADD SWAP1 PUSH1 0xA0 DUP7 ADD SWAP1 DUP5 SWAP1 JUMPDEST DUP1 DUP3 LT ISZERO PUSH2 0xA7C JUMPI DUP4 MLOAD PUSH1 0x1 PUSH1 0x1 PUSH1 0xA0 SHL SUB AND DUP4 MSTORE SWAP3 DUP12 ADD SWAP3 SWAP2 DUP12 ADD SWAP2 PUSH1 0x1 SWAP2 SWAP1 SWAP2 ADD SWAP1 PUSH2 0xA53 JUMP JUMPDEST POP POP SWAP7 DUP10 ADD SWAP7 SWAP5 POP POP SWAP2 DUP8 ADD SWAP2 PUSH1 0x1 ADD PUSH2 0xA0B JUMP JUMPDEST POP SWAP2 SWAP10 SWAP9 POP POP POP POP POP POP POP POP POP JUMP JUMPDEST PUSH1 0x0 PUSH1 0x20 DUP3 DUP5 SUB SLT ISZERO PUSH2 0xAB2 JUMPI PUSH1 0x0 DUP1 REVERT JUMPDEST POP CALLDATALOAD SWAP2 SWAP1 POP JUMP JUMPDEST PUSH1 0x0 PUSH1 0x20 DUP3 DUP5 SUB SLT ISZERO PUSH2 0xACB JUMPI PUSH1 0x0 DUP1 REVERT JUMPDEST DUP2 CALLDATALOAD PUSH2 0xAD6 DUP2 PUSH2 0x8E5 JUMP JUMPDEST SWAP4 SWAP3 POP POP POP JUMP JUMPDEST PUSH4 0x4E487B71 PUSH1 0xE0 SHL PUSH1 0x0 MSTORE PUSH1 0x11 PUSH1 0x4 MSTORE PUSH1 0x24 PUSH1 0x0 REVERT JUMPDEST DUP1 DUP3 ADD DUP1 DUP3 GT ISZERO PUSH2 0x329 JUMPI PUSH2 0x329 PUSH2 0xADD JUMP JUMPDEST PUSH4 0x4E487B71 PUSH1 0xE0 SHL PUSH1 0x0 MSTORE PUSH1 0x32 PUSH1 0x4 MSTORE PUSH1 0x24 PUSH1 0x0 REVERT JUMPDEST PUSH1 0x0 PUSH1 0x20 DUP3 DUP5 SUB SLT ISZERO PUSH2 0xB2E JUMPI PUSH1 0x0 DUP1 REVERT JUMPDEST DUP2 MLOAD DUP1 ISZERO ISZERO DUP2 EQ PUSH2 0xAD6 JUMPI PUSH1 0x0 DUP1 REVERT JUMPDEST PUSH1 0x0 DUP3 CALLDATALOAD PUSH1 0x7E NOT DUP4 CALLDATASIZE SUB ADD DUP2 SLT PUSH2 0xB54 JUMPI PUSH1 0x0 DUP1 REVERT JUMPDEST SWAP2 SWAP1 SWAP2 ADD SWAP3 SWAP2 POP POP JUMP JUMPDEST PUSH4 0x4E487B71 PUSH1 0xE0 SHL PUSH1 0x0 MSTORE PUSH1 0x41 PUSH1 0x4 MSTORE PUSH1 0x24 PUSH1 0x0 REVERT JUMPDEST PUSH1 0x0 DUP2 CALLDATALOAD PUSH2 0x329 DUP2 PUSH2 0x8E5 JUMP JUMPDEST DUP2 CALLDATALOAD DUP2 SSTORE PUSH1 0x1 PUSH1 0x20 DUP1 DUP5 ADD CALLDATALOAD PUSH1 0x1 DUP5 ADD SSTORE PUSH1 0x40 DUP5 ADD CALLDATALOAD PUSH1 0x2 DUP5 ADD SSTORE PUSH1 0x3 DUP4 ADD PUSH1 0x60 DUP6 ADD CALLDATALOAD PUSH1 0x1E NOT DUP7 CALLDATASIZE SUB ADD DUP2 SLT PUSH2 0xBB7 JUMPI PUSH1 0x0 DUP1 REVERT JUMPDEST DUP6 ADD DUP1 CALLDATALOAD PUSH8 0xFFFFFFFFFFFFFFFF DUP2 GT ISZERO PUSH2 0xBD0 JUMPI PUSH1 0x0 DUP1 REVERT JUMPDEST PUSH1 0x20 DUP3 ADD SWAP2 POP DUP1 PUSH1 0x5 SHL CALLDATASIZE SUB DUP3 SGT ISZERO PUSH2 0xBE8 JUMPI PUSH1 0x0 DUP1 REVERT JUMPDEST PUSH9 0x10000000000000000 DUP2 GT ISZERO PUSH2 0xC01 JUMPI PUSH2 0xC01 PUSH2 0xB5E JUMP JUMPDEST DUP3 SLOAD DUP2 DUP5 SSTORE DUP1 DUP3 LT ISZERO PUSH2 0xC36 JUMPI PUSH1 0x0 DUP5 DUP2 MSTORE PUSH1 0x20 DUP2 KECCAK256 DUP4 DUP2 ADD SWAP1 DUP4 ADD JUMPDEST DUP1 DUP3 LT ISZERO PUSH2 0xC32 JUMPI DUP3 DUP3 SSTORE SWAP1 DUP9 ADD SWAP1 PUSH2 0xC1E JUMP JUMPDEST POP POP POP JUMPDEST POP PUSH1 0x0 SWAP3 DUP4 MSTORE PUSH1 0x20 DUP4 KECCAK256 SWAP3 JUMPDEST DUP2 DUP2 LT ISZERO PUSH2 0xC62 JUMPI PUSH2 0xC53 DUP4 PUSH2 0xB74 JUMP JUMPDEST DUP5 DUP3 ADD SSTORE SWAP2 DUP5 ADD SWAP2 DUP6 ADD PUSH2 0xC42 JUMP JUMPDEST POP POP POP POP POP POP POP POP JUMP JUMPDEST DUP2 DUP4 MSTORE PUSH1 0x0 PUSH1 0x20 DUP1 DUP6 ADD SWAP5 POP DUP3 PUSH1 0x0 JUMPDEST DUP6 DUP2 LT ISZERO PUSH2 0xCAA JUMPI DUP2 CALLDATALOAD PUSH2 0xC8F DUP2 PUSH2 0x8E5 JUMP JUMPDEST PUSH1 0x1 PUSH1 0x1 PUSH1 0xA0 SHL SUB AND DUP8 MSTORE SWAP6 DUP3 ADD SWAP6 SWAP1 DUP3 ADD SWAP1 PUSH1 0x1 ADD PUSH2 0xC7C JUMP JUMPDEST POP SWAP5 SWAP6 SWAP5 POP POP POP POP POP JUMP JUMPDEST PUSH1 0x20 DUP1 DUP3 MSTORE DUP2 DUP2 ADD DUP4 SWAP1 MSTORE PUSH1 0x0 SWAP1 PUSH1 0x40 DUP1 DUP5 ADD PUSH1 0x5 DUP7 DUP2 SHL DUP7 ADD DUP4 ADD DUP9 DUP7 JUMPDEST DUP10 DUP2 LT ISZERO PUSH2 0xD82 JUMPI DUP9 DUP4 SUB PUSH1 0x3F NOT ADD DUP6 MSTORE DUP2 CALLDATALOAD CALLDATASIZE DUP13 SWAP1 SUB PUSH1 0x7E NOT ADD DUP2 SLT PUSH2 0xCFA JUMPI PUSH1 0x0 DUP1 REVERT JUMPDEST DUP12 ADD DUP1 CALLDATALOAD DUP5 MSTORE DUP8 DUP2 ADD CALLDATALOAD DUP9 DUP6 ADD MSTORE DUP7 DUP2 ADD CALLDATALOAD DUP8 DUP6 ADD MSTORE PUSH1 0x80 PUSH1 0x60 DUP1 DUP4 ADD CALLDATALOAD CALLDATASIZE DUP5 SWAP1 SUB PUSH1 0x1E NOT ADD DUP2 SLT PUSH2 0xD2B JUMPI PUSH1 0x0 DUP1 REVERT JUMPDEST SWAP1 SWAP3 ADD DUP10 DUP2 ADD SWAP3 SWAP1 CALLDATALOAD PUSH8 0xFFFFFFFFFFFFFFFF DUP2 GT ISZERO PUSH2 0xD49 JUMPI PUSH1 0x0 DUP1 REVERT JUMPDEST DUP1 DUP9 SHL CALLDATASIZE SUB DUP5 SGT ISZERO PUSH2 0xD5A JUMPI PUSH1 0x0 DUP1 REVERT JUMPDEST DUP3 DUP3 DUP9 ADD MSTORE PUSH2 0xD6C DUP4 DUP9 ADD DUP3 DUP7 PUSH2 0xC6C JUMP JUMPDEST SWAP9 DUP12 ADD SWAP9 SWAP7 POP POP POP SWAP3 DUP9 ADD SWAP3 POP POP PUSH1 0x1 ADD PUSH2 0xCD4 JUMP JUMPDEST POP SWAP1 SWAP10 SWAP9 POP POP POP POP POP POP POP POP POP JUMP JUMPDEST DUP2 DUP2 SUB DUP2 DUP2 GT ISZERO PUSH2 0x329 JUMPI PUSH2 0x329 PUSH2 0xADD JUMP INVALID LOG2 PUSH5 0x6970667358 0x22 SLT KECCAK256 PUSH24 0x9FF4938EE24768C5B35CEBAD659057FED12E6E3D56A28312 0xDD 0x2C COINBASE SWAP1 PUSH15 0xFB8E64736F6C634300081600330000 "},"methodIdentifiers":{"checkSpendAllowed(uint256,address)":"39c3856f","configureSpendingRules((uint256,uint256,uint256,address[])[])":"6eb00ed1","currentBudget()":"8f09da64","currentWindowDuration()":"579abdd0","currentWindowStart()":"13bc9e68","executeSpend(uint256,address)":"b5a15bfe","getSpendingRules()":"ac8a6187","owner()":"8da5cb5b","renounceOwnership()":"715018a6","settlementToken()":"7b9e618d","spendingRules(uint256)":"b5b9a519","transferOwnership(address)":"f2fde38b","withdraw(address,uint256,address)":"69328dec"}}}}}