{"contracts-src/VaultFactory.sol":{"VaultFactory":{"abi":[{"inputs":[{"internalType":"address","name":"_implementation","type":"address"},{"internalType":"address","name":"_settlementToken","type":"address"}],"stateMutability":"nonpayable","type":"constructor"},{"anonymous":false,"inputs":[{"indexed":true,"internalType":"address","name":"vault","type":"address"},{"indexed":true,"internalType":"address","name":"admin","type":"address"},{"indexed":false,"internalType":"address","name":"settlementToken","type":"address"}],"name":"VaultDeployed","type":"event"},{"inputs":[{"internalType":"address","name":"admin","type":"address"},{"internalType":"bytes32","name":"userSalt","type":"bytes32"}],"name":"deployDeterministic","outputs":[{"internalType":"address","name":"vault","type":"address"}],"stateMutability":"nonpayable","type":"function"},{"inputs":[{"internalType":"address","name":"admin","type":"address"},{"internalType":"bytes32","name":"salt","type":"bytes32"}],"name":"deployVault","outputs":[{"internalType":"address","name":"vault","type":"address"}],"stateMutability":"nonpayable","type":"function"},{"inputs":[{"internalType":"address","name":"admin","type":"address"},{"internalType":"bytes32","name":"userSalt","type":"bytes32"}],"name":"getVaultAddress","outputs":[{"internalType":"address","name":"","type":"address"}],"stateMutability":"view","type":"function"},{"inputs":[],"name":"implementation","outputs":[{"internalType":"address","name":"","type":"address"}],"stateMutability":"view","type":"function"},{"inputs":[],"name":"settlementToken","outputs":[{"internalType":"address","name":"","type":"address"}],"stateMutability":"view","type":"function"}],"evm":{"bytecode":{"linkReferences":{},"object":"60c060405234801561001057600080fd5b506040516109a53803806109a583398101604081905261002f91610062565b6001600160a01b039182166080521660a052610095565b80516001600160a01b038116811461005d57600080fd5b919050565b6000806040838503121561007557600080fd5b61007e83610046565b915061008c60208401610046565b90509250929050565b60805160a0516108ca6100db6000396000818160ca015281816101380152818161026b015261033901526000818160900152818161016701526102d501526108ca6000f3fe608060405234801561001057600080fd5b50600436106100575760003560e01c8063197c6b2d1461005c5780635c60da1b1461008b57806368027f27146100b25780637b9e618d146100c5578063e919e3ea146100ec575b600080fd5b61006f61006a3660046103be565b6100ff565b6040516001600160a01b03909116815260200160405180910390f35b61006f7f000000000000000000000000000000000000000000000000000000000000000081565b61006f6100c03660046103be565b61025e565b61006f7f000000000000000000000000000000000000000000000000000000000000000081565b61006f6100fa3660046103be565b61039e565b60008060ff60f81b308460405180602001610119906103b1565b601f1982820381018352601f9091011660408190526001600160a01b037f000000000000000000000000000000000000000000000000000000000000000081166024830152891660448201527f00000000000000000000000000000000000000000000000000000000000000009060640160408051601f19818403018152918152602080830180516001600160e01b031663485cc95560e01b17905290516101c39392910161041a565b60408051601f19818403018152908290526101e1929160200161045c565b6040516020818303038152906040528051906020012060405160200161023e94939291906001600160f81b031994909416845260609290921b6bffffffffffffffffffffffff191660018401526015830152603582015260550190565b60408051808303601f190181529190528051602090910120949350505050565b6040516001600160a01b037f00000000000000000000000000000000000000000000000000000000000000008116602483015283166044820152600090819060640160408051601f198184030181529181526020820180516001600160e01b031663485cc95560e01b1790525190915060009084907f0000000000000000000000000000000000000000000000000000000000000000908490610300906103b1565b61030b92919061041a565b8190604051809103906000f590508015801561032b573d6000803e3d6000fd5b506040516001600160a01b037f000000000000000000000000000000000000000000000000000000000000000081168252919450849250868216918316907f26ad9f07a47e389150a15677a365d64f42af0000b792c182ada6a3b5ab193a0b9060200160405180910390a3505092915050565b60006103aa838361025e565b9392505050565b6104098061048c83390190565b600080604083850312156103d157600080fd5b82356001600160a01b03811681146103e857600080fd5b946020939093013593505050565b60005b838110156104115781810151838201526020016103f9565b50506000910152565b60018060a01b038316815260406020820152600082518060408401526104478160608501602087016103f6565b601f01601f1916919091016060019392505050565b6000835161046e8184602088016103f6565b8351908301906104828183602088016103f6565b0194935050505056fe608060405260405161040938038061040983398101604081905261002291610267565b61002c8282610033565b5050610351565b61003c82610092565b6040516001600160a01b038316907fbc7cd75a20ee27fd9adebab32041f755214dbc6bffa90cc0225b39da2e5c2d3b90600090a280511561008657610081828261010e565b505050565b61008e610185565b5050565b806001600160a01b03163b6000036100cd57604051634c9c8ce360e01b81526001600160a01b03821660048201526024015b60405180910390fd5b7f360894a13ba1a3210667c828492db98dca3e2076cc3735a920a3ca505d382bbc80546001600160a01b0319166001600160a01b0392909216919091179055565b6060600080846001600160a01b03168460405161012b9190610335565b600060405180830381855af49150503d8060008114610166576040519150601f19603f3d011682016040523d82523d6000602084013e61016b565b606091505b50909250905061017c8583836101a6565b95945050505050565b34156101a45760405163b398979f60e01b815260040160405180910390fd5b565b6060826101bb576101b682610205565b6101fe565b81511580156101d257506001600160a01b0384163b155b156101fb57604051639996b31560e01b81526001600160a01b03851660048201526024016100c4565b50805b9392505050565b80511561021457805160208201fd5b60405163d6bda27560e01b815260040160405180910390fd5b634e487b7160e01b600052604160045260246000fd5b60005b8381101561025e578181015183820152602001610246565b50506000910152565b6000806040838503121561027a57600080fd5b82516001600160a01b038116811461029157600080fd5b60208401519092506001600160401b03808211156102ae57600080fd5b818501915085601f8301126102c257600080fd5b8151818111156102d4576102d461022d565b604051601f8201601f19908116603f011681019083821181831017156102fc576102fc61022d565b8160405282815288602084870101111561031557600080fd5b610326836020830160208801610243565b80955050505050509250929050565b60008251610347818460208701610243565b9190910192915050565b60aa8061035f6000396000f3fe6080604052600a600c565b005b60186014601a565b6051565b565b6000604c7f360894a13ba1a3210667c828492db98dca3e2076cc3735a920a3ca505d382bbc546001600160a01b031690565b905090565b3660008037600080366000845af43d6000803e808015606f573d6000f35b3d6000fdfea264697066735822122060aeada43c964f1fbb27c2d9cbef9ca57ecc24f36b6aed0059d5371ade8a972f64736f6c63430008160033a26469706673582212204769e8651299b9a1dad8822a892103d9238dd67e2aba9199b5e7770730d4c90064736f6c63430008160033","opcodes":"PUSH1 0xC0 PUSH1 0x40 MSTORE CALLVALUE DUP1 ISZERO PUSH2 0x10 JUMPI PUSH1 0x0 DUP1 REVERT JUMPDEST POP PUSH1 0x40 MLOAD PUSH2 0x9A5 CODESIZE SUB DUP1 PUSH2 0x9A5 DUP4 CODECOPY DUP2 ADD PUSH1 0x40 DUP2 SWAP1 MSTORE PUSH2 0x2F SWAP2 PUSH2 0x62 JUMP JUMPDEST PUSH1 0x1 PUSH1 0x1 PUSH1 0xA0 SHL SUB SWAP2 DUP3 AND PUSH1 0x80 MSTORE AND PUSH1 0xA0 MSTORE PUSH2 0x95 JUMP JUMPDEST DUP1 MLOAD PUSH1 0x1 PUSH1 0x1 PUSH1 0xA0 SHL SUB DUP2 AND DUP2 EQ PUSH2 0x5D JUMPI PUSH1 0x0 DUP1 REVERT JUMPDEST SWAP2 SWAP1 POP JUMP JUMPDEST PUSH1 0x0 DUP1 PUSH1 0x40 DUP4 DUP6 SUB SLT ISZERO PUSH2 0x75 JUMPI PUSH1 0x0 DUP1 REVERT JUMPDEST PUSH2 0x7E DUP4 PUSH2 0x46 JUMP JUMPDEST SWAP2 POP PUSH2 0x8C PUSH1 0x20 DUP5 ADD PUSH2 0x46 JUMP JUMPDEST SWAP1 POP SWAP3 POP SWAP3 SWAP1 POP JUMP JUMPDEST PUSH1 0x80 MLOAD PUSH1 0xA0 MLOAD PUSH2 0x8CA PUSH2 0xDB PUSH1 0x0 CODECOPY PUSH1 0x0 DUP2 DUP2 PUSH1 0xCA ADD MSTORE DUP2 DUP2 PUSH2 0x138 ADD MSTORE DUP2 DUP2 PUSH2 0x26B ADD MSTORE PUSH2 0x339 ADD MSTORE PUSH1 0x0 DUP2 DUP2 PUSH1 0x90 ADD MSTORE DUP2 DUP2 PUSH2 0x167 ADD MSTORE PUSH2 0x2D5 ADD MSTORE PUSH2 0x8CA PUSH1 0x0 RETURN INVALID PUSH1 0x80 PUSH1 0x40 MSTORE CALLVALUE DUP1 ISZERO PUSH2 0x10 JUMPI PUSH1 0x0 DUP1 REVERT JUMPDEST POP PUSH1 0x4 CALLDATASIZE LT PUSH2 0x57 JUMPI PUSH1 0x0 CALLDATALOAD PUSH1 0xE0 SHR DUP1 PUSH4 0x197C6B2D EQ PUSH2 0x5C JUMPI DUP1 PUSH4 0x5C60DA1B EQ PUSH2 0x8B JUMPI DUP1 PUSH4 0x68027F27 EQ PUSH2 0xB2 JUMPI DUP1 PUSH4 0x7B9E618D EQ PUSH2 0xC5 JUMPI DUP1 PUSH4 0xE919E3EA EQ PUSH2 0xEC JUMPI JUMPDEST PUSH1 0x0 DUP1 REVERT JUMPDEST PUSH2 0x6F PUSH2 0x6A CALLDATASIZE PUSH1 0x4 PUSH2 0x3BE JUMP JUMPDEST PUSH2 0xFF JUMP JUMPDEST PUSH1 0x40 MLOAD PUSH1 0x1 PUSH1 0x1 PUSH1 0xA0 SHL SUB SWAP1 SWAP2 AND DUP2 MSTORE PUSH1 0x20 ADD PUSH1 0x40 MLOAD DUP1 SWAP2 SUB SWAP1 RETURN JUMPDEST PUSH2 0x6F PUSH32 0x0 DUP2 JUMP JUMPDEST PUSH2 0x6F PUSH2 0xC0 CALLDATASIZE PUSH1 0x4 PUSH2 0x3BE JUMP JUMPDEST PUSH2 0x25E JUMP JUMPDEST PUSH2 0x6F PUSH32 0x0 DUP2 JUMP JUMPDEST PUSH2 0x6F PUSH2 0xFA CALLDATASIZE PUSH1 0x4 PUSH2 0x3BE JUMP JUMPDEST PUSH2 0x39E JUMP JUMPDEST PUSH1 0x0 DUP1 PUSH1 0xFF PUSH1 0xF8 SHL ADDRESS DUP5 PUSH1 0x40 MLOAD DUP1 PUSH1 0x20 ADD PUSH2 0x119 SWAP1 PUSH2 0x3B1 JUMP JUMPDEST PUSH1 0x1F NOT DUP3 DUP3 SUB DUP2 ADD DUP4 MSTORE PUSH1 0x1F SWAP1 SWAP2 ADD AND PUSH1 0x40 DUP2 SWAP1 MSTORE PUSH1 0x1 PUSH1 0x1 PUSH1 0xA0 SHL SUB PUSH32 0x0 DUP2 AND PUSH1 0x24 DUP4 ADD MSTORE DUP10 AND PUSH1 0x44 DUP3 ADD MSTORE PUSH32 0x0 SWAP1 PUSH1 0x64 ADD PUSH1 0x40 DUP1 MLOAD PUSH1 0x1F NOT DUP2 DUP5 SUB ADD DUP2 MSTORE SWAP2 DUP2 MSTORE PUSH1 0x20 DUP1 DUP4 ADD DUP1 MLOAD PUSH1 0x1 PUSH1 0x1 PUSH1 0xE0 SHL SUB AND PUSH4 0x485CC955 PUSH1 0xE0 SHL OR SWAP1 MSTORE SWAP1 MLOAD PUSH2 0x1C3 SWAP4 SWAP3 SWAP2 ADD PUSH2 0x41A JUMP JUMPDEST PUSH1 0x40 DUP1 MLOAD PUSH1 0x1F NOT DUP2 DUP5 SUB ADD DUP2 MSTORE SWAP1 DUP3 SWAP1 MSTORE PUSH2 0x1E1 SWAP3 SWAP2 PUSH1 0x20 ADD PUSH2 0x45C JUMP JUMPDEST PUSH1 0x40 MLOAD PUSH1 0x20 DUP2 DUP4 SUB SUB DUP2 MSTORE SWAP1 PUSH1 0x40 MSTORE DUP1 MLOAD SWAP1 PUSH1 0x20 ADD KECCAK256 PUSH1 0x40 MLOAD PUSH1 0x20 ADD PUSH2 0x23E SWAP5 SWAP4 SWAP3 SWAP2 SWAP1 PUSH1 0x1 PUSH1 0x1 PUSH1 0xF8 SHL SUB NOT SWAP5 SWAP1 SWAP5 AND DUP5 MSTORE PUSH1 0x60 SWAP3 SWAP1 SWAP3 SHL PUSH12 0xFFFFFFFFFFFFFFFFFFFFFFFF NOT AND PUSH1 0x1 DUP5 ADD MSTORE PUSH1 0x15 DUP4 ADD MSTORE PUSH1 0x35 DUP3 ADD MSTORE PUSH1 0x55 ADD SWAP1 JUMP JUMPDEST PUSH1 0x40 DUP1 MLOAD DUP1 DUP4 SUB PUSH1 0x1F NOT ADD DUP2 MSTORE SWAP2 SWAP1 MSTORE DUP1 MLOAD PUSH1 0x20 SWAP1 SWAP2 ADD KECCAK256 SWAP5 SWAP4 POP POP POP POP JUMP JUMPDEST PUSH1 0x40 MLOAD PUSH1 0x1 PUSH1 0x1 PUSH1 0xA0 SHL SUB PUSH32 0x0 DUP2 AND PUSH1 0x24 DUP4 ADD MSTORE DUP4 AND PUSH1 0x44 DUP3 ADD MSTORE PUSH1 0x0 SWAP1 DUP2 SWAP1 PUSH1 0x64 ADD PUSH1 0x40 DUP1 MLOAD PUSH1 0x1F NOT DUP2 DUP5 SUB ADD DUP2 MSTORE SWAP2 DUP2 MSTORE PUSH1 0x20 DUP3 ADD DUP1 MLOAD PUSH1 0x1 PUSH1 0x1 PUSH1 0xE0 SHL SUB AND PUSH4 0x485CC955 PUSH1 0xE0 SHL OR SWAP1 MSTORE MLOAD SWAP1 SWAP2 POP PUSH1 0x0 SWAP1 DUP5 SWAP1 PUSH32 0x0 SWAP1 DUP5 SWAP1 PUSH2 0x300 SWAP1 PUSH2 0x3B1 JUMP JUMPDEST PUSH2 0x30B SWAP3 SWAP2 SWAP1 PUSH2 0x41A JUMP JUMPDEST DUP2 SWAP1 PUSH1 0x40 MLOAD DUP1 SWAP2 SUB SWAP1 PUSH1 0x0 CREATE2 SWAP1 POP DUP1 ISZERO DUP1 ISZERO PUSH2 0x32B JUMPI RETURNDATASIZE PUSH1 0x0 DUP1 RETURNDATACOPY RETURNDATASIZE PUSH1 0x0 REVERT JUMPDEST POP PUSH1 0x40 MLOAD PUSH1 0x1 PUSH1 0x1 PUSH1 0xA0 SHL SUB PUSH32 0x0 DUP2 AND DUP3 MSTORE SWAP2 SWAP5 POP DUP5 SWAP3 POP DUP7 DUP3 AND SWAP2 DUP4 AND SWAP1 PUSH32 0x26AD9F07A47E389150A15677A365D64F42AF0000B792C182ADA6A3B5AB193A0B SWAP1 PUSH1 0x20 ADD PUSH1 0x40 MLOAD DUP1 SWAP2 SUB SWAP1 LOG3 POP POP SWAP3 SWAP2 POP POP JUMP JUMPDEST PUSH1 0x0 PUSH2 0x3AA DUP4 DUP4 PUSH2 0x25E JUMP JUMPDEST SWAP4 SWAP3 POP POP POP JUMP JUMPDEST PUSH2 0x409 DUP1 PUSH2 0x48C DUP4 CODECOPY ADD SWAP1 JUMP JUMPDEST PUSH1 0x0 DUP1 PUSH1 0x40 DUP4 DUP6 SUB SLT ISZERO PUSH2 0x3D1 JUMPI PUSH1 0x0 DUP1 REVERT JUMPDEST DUP3 CALLDATALOAD PUSH1 0x1 PUSH1 0x1 PUSH1 0xA0 SHL SUB DUP2 AND DUP2 EQ PUSH2 0x3E8 JUMPI PUSH1 0x0 DUP1 REVERT JUMPDEST SWAP5 PUSH1 0x20 SWAP4 SWAP1 SWAP4 ADD CALLDATALOAD SWAP4 POP POP POP JUMP JUMPDEST PUSH1 0x0 JUMPDEST DUP4 DUP2 LT ISZERO PUSH2 0x411 JUMPI DUP2 DUP2 ADD MLOAD DUP4 DUP3 ADD MSTORE PUSH1 0x20 ADD PUSH2 0x3F9 JUMP JUMPDEST POP POP PUSH1 0x0 SWAP2 ADD MSTORE JUMP JUMPDEST PUSH1 0x1 DUP1 PUSH1 0xA0 SHL SUB DUP4 AND DUP2 MSTORE PUSH1 0x40 PUSH1 0x20 DUP3 ADD MSTORE PUSH1 0x0 DUP3 MLOAD DUP1 PUSH1 0x40 DUP5 ADD MSTORE PUSH2 0x447 DUP2 PUSH1 0x60 DUP6 ADD PUSH1 0x20 DUP8 ADD PUSH2 0x3F6 JUMP JUMPDEST PUSH1 0x1F ADD PUSH1 0x1F NOT AND SWAP2 SWAP1 SWAP2 ADD PUSH1 0x60 ADD SWAP4 SWAP3 POP POP POP JUMP JUMPDEST PUSH1 0x0 DUP4 MLOAD PUSH2 0x46E DUP2 DUP5 PUSH1 0x20 DUP9 ADD PUSH2 0x3F6 JUMP JUMPDEST DUP4 MLOAD SWAP1 DUP4 ADD SWAP1 PUSH2 0x482 DUP2 DUP4 PUSH1 0x20 DUP9 ADD PUSH2 0x3F6 JUMP JUMPDEST ADD SWAP5 SWAP4 POP POP POP POP JUMP INVALID PUSH1 0x80 PUSH1 0x40 MSTORE PUSH1 0x40 MLOAD PUSH2 0x409 CODESIZE SUB DUP1 PUSH2 0x409 DUP4 CODECOPY DUP2 ADD PUSH1 0x40 DUP2 SWAP1 MSTORE PUSH2 0x22 SWAP2 PUSH2 0x267 JUMP JUMPDEST PUSH2 0x2C DUP3 DUP3 PUSH2 0x33 JUMP JUMPDEST POP POP PUSH2 0x351 JUMP JUMPDEST PUSH2 0x3C DUP3 PUSH2 0x92 JUMP JUMPDEST PUSH1 0x40 MLOAD PUSH1 0x1 PUSH1 0x1 PUSH1 0xA0 SHL SUB DUP4 AND SWAP1 PUSH32 0xBC7CD75A20EE27FD9ADEBAB32041F755214DBC6BFFA90CC0225B39DA2E5C2D3B SWAP1 PUSH1 0x0 SWAP1 LOG2 DUP1 MLOAD ISZERO PUSH2 0x86 JUMPI PUSH2 0x81 DUP3 DUP3 PUSH2 0x10E JUMP JUMPDEST POP POP POP JUMP JUMPDEST PUSH2 0x8E PUSH2 0x185 JUMP JUMPDEST POP POP JUMP JUMPDEST DUP1 PUSH1 0x1 PUSH1 0x1 PUSH1 0xA0 SHL SUB AND EXTCODESIZE PUSH1 0x0 SUB PUSH2 0xCD JUMPI PUSH1 0x40 MLOAD PUSH4 0x4C9C8CE3 PUSH1 0xE0 SHL DUP2 MSTORE PUSH1 0x1 PUSH1 0x1 PUSH1 0xA0 SHL SUB DUP3 AND PUSH1 0x4 DUP3 ADD MSTORE PUSH1 0x24 ADD JUMPDEST PUSH1 0x40 MLOAD DUP1 SWAP2 SUB SWAP1 REVERT JUMPDEST PUSH32 0x360894A13BA1A3210667C828492DB98DCA3E2076CC3735A920A3CA505D382BBC DUP1 SLOAD PUSH1 0x1 PUSH1 0x1 PUSH1 0xA0 SHL SUB NOT AND PUSH1 0x1 PUSH1 0x1 PUSH1 0xA0 SHL SUB SWAP3 SWAP1 SWAP3 AND SWAP2 SWAP1 SWAP2 OR SWAP1 SSTORE JUMP JUMPDEST PUSH1 0x60 PUSH1 0x0 DUP1 DUP5 PUSH1 0x1 PUSH1 0x1 PUSH1 0xA0 SHL SUB AND DUP5 PUSH1 0x40 MLOAD PUSH2 0x12B SWAP2 SWAP1 PUSH2 0x335 JUMP JUMPDEST PUSH1 0x0 PUSH1 0x40 MLOAD DUP1 DUP4 SUB DUP2 DUP6 GAS DELEGATECALL SWAP2 POP POP RETURNDATASIZE DUP1 PUSH1 0x0 DUP2 EQ PUSH2 0x166 JUMPI PUSH1 0x40 MLOAD SWAP2 POP PUSH1 0x1F NOT PUSH1 0x3F RETURNDATASIZE ADD AND DUP3 ADD PUSH1 0x40 MSTORE RETURNDATASIZE DUP3 MSTORE RETURNDATASIZE PUSH1 0x0 PUSH1 0x20 DUP5 ADD RETURNDATACOPY PUSH2 0x16B JUMP JUMPDEST PUSH1 0x60 SWAP2 POP JUMPDEST POP SWAP1 SWAP3 POP SWAP1 POP PUSH2 0x17C DUP6 DUP4 DUP4 PUSH2 0x1A6 JUMP JUMPDEST SWAP6 SWAP5 POP POP POP POP POP JUMP JUMPDEST CALLVALUE ISZERO PUSH2 0x1A4 JUMPI PUSH1 0x40 MLOAD PUSH4 0xB398979F PUSH1 0xE0 SHL DUP2 MSTORE PUSH1 0x4 ADD PUSH1 0x40 MLOAD DUP1 SWAP2 SUB SWAP1 REVERT JUMPDEST JUMP JUMPDEST PUSH1 0x60 DUP3 PUSH2 0x1BB JUMPI PUSH2 0x1B6 DUP3 PUSH2 0x205 JUMP JUMPDEST PUSH2 0x1FE JUMP JUMPDEST DUP2 MLOAD ISZERO DUP1 ISZERO PUSH2 0x1D2 JUMPI POP PUSH1 0x1 PUSH1 0x1 PUSH1 0xA0 SHL SUB DUP5 AND EXTCODESIZE ISZERO JUMPDEST ISZERO PUSH2 0x1FB JUMPI PUSH1 0x40 MLOAD PUSH4 0x9996B315 PUSH1 0xE0 SHL DUP2 MSTORE PUSH1 0x1 PUSH1 0x1 PUSH1 0xA0 SHL SUB DUP6 AND PUSH1 0x4 DUP3 ADD MSTORE PUSH1 0x24 ADD PUSH2 0xC4 JUMP JUMPDEST POP DUP1 JUMPDEST SWAP4 SWAP3 POP POP POP JUMP JUMPDEST DUP1 MLOAD ISZERO PUSH2 0x214 JUMPI DUP1 MLOAD PUSH1 0x20 DUP3 ADD REVERT JUMPDEST PUSH1 0x40 MLOAD PUSH4 0xD6BDA275 PUSH1 0xE0 SHL DUP2 MSTORE PUSH1 0x4 ADD PUSH1 0x40 MLOAD DUP1 SWAP2 SUB SWAP1 REVERT JUMPDEST PUSH4 0x4E487B71 PUSH1 0xE0 SHL PUSH1 0x0 MSTORE PUSH1 0x41 PUSH1 0x4 MSTORE PUSH1 0x24 PUSH1 0x0 REVERT JUMPDEST PUSH1 0x0 JUMPDEST DUP4 DUP2 LT ISZERO PUSH2 0x25E JUMPI DUP2 DUP2 ADD MLOAD DUP4 DUP3 ADD MSTORE PUSH1 0x20 ADD PUSH2 0x246 JUMP JUMPDEST POP POP PUSH1 0x0 SWAP2 ADD MSTORE JUMP JUMPDEST PUSH1 0x0 DUP1 PUSH1 0x40 DUP4 DUP6 SUB SLT ISZERO PUSH2 0x27A JUMPI PUSH1 0x0 DUP1 REVERT JUMPDEST DUP3 MLOAD PUSH1 0x1 PUSH1 0x1 PUSH1 0xA0 SHL SUB DUP2 AND DUP2 EQ PUSH2 0x291 JUMPI PUSH1 0x0 DUP1 REVERT JUMPDEST PUSH1 0x20 DUP5 ADD MLOAD SWAP1 SWAP3 POP PUSH1 0x1 PUSH1 0x1 PUSH1 0x40 SHL SUB DUP1 DUP3 GT ISZERO PUSH2 0x2AE JUMPI PUSH1 0x0 DUP1 REVERT JUMPDEST DUP2 DUP6 ADD SWAP2 POP DUP6 PUSH1 0x1F DUP4 ADD SLT PUSH2 0x2C2 JUMPI PUSH1 0x0 DUP1 REVERT JUMPDEST DUP2 MLOAD DUP2 DUP2 GT ISZERO PUSH2 0x2D4 JUMPI PUSH2 0x2D4 PUSH2 0x22D JUMP JUMPDEST PUSH1 0x40 MLOAD PUSH1 0x1F DUP3 ADD PUSH1 0x1F NOT SWAP1 DUP2 AND PUSH1 0x3F ADD AND DUP2 ADD SWAP1 DUP4 DUP3 GT DUP2 DUP4 LT OR ISZERO PUSH2 0x2FC JUMPI PUSH2 0x2FC PUSH2 0x22D JUMP JUMPDEST DUP2 PUSH1 0x40 MSTORE DUP3 DUP2 MSTORE DUP9 PUSH1 0x20 DUP5 DUP8 ADD ADD GT ISZERO PUSH2 0x315 JUMPI PUSH1 0x0 DUP1 REVERT JUMPDEST PUSH2 0x326 DUP4 PUSH1 0x20 DUP4 ADD PUSH1 0x20 DUP9 ADD PUSH2 0x243 JUMP JUMPDEST DUP1 SWAP6 POP POP POP POP POP POP SWAP3 POP SWAP3 SWAP1 POP JUMP JUMPDEST PUSH1 0x0 DUP3 MLOAD PUSH2 0x347 DUP2 DUP5 PUSH1 0x20 DUP8 ADD PUSH2 0x243 JUMP JUMPDEST SWAP2 SWAP1 SWAP2 ADD SWAP3 SWAP2 POP POP JUMP JUMPDEST PUSH1 0xAA DUP1 PUSH2 0x35F PUSH1 0x0 CODECOPY PUSH1 0x0 RETURN INVALID PUSH1 0x80 PUSH1 0x40 MSTORE PUSH1 0xA PUSH1 0xC JUMP JUMPDEST STOP JUMPDEST PUSH1 0x18 PUSH1 0x14 PUSH1 0x1A JUMP JUMPDEST PUSH1 0x51 JUMP JUMPDEST JUMP JUMPDEST PUSH1 0x0 PUSH1 0x4C PUSH32 0x360894A13BA1A3210667C828492DB98DCA3E2076CC3735A920A3CA505D382BBC SLOAD PUSH1 0x1 PUSH1 0x1 PUSH1 0xA0 SHL SUB AND SWAP1 JUMP JUMPDEST SWAP1 POP SWAP1 JUMP JUMPDEST CALLDATASIZE PUSH1 0x0 DUP1 CALLDATACOPY PUSH1 0x0 DUP1 CALLDATASIZE PUSH1 0x0 DUP5 GAS DELEGATECALL RETURNDATASIZE PUSH1 0x0 DUP1 RETURNDATACOPY DUP1 DUP1 ISZERO PUSH1 0x6F JUMPI RETURNDATASIZE PUSH1 0x0 RETURN JUMPDEST RETURNDATASIZE PUSH1 0x0 REVERT INVALID LOG2 PUSH5 0x6970667358 0x22 SLT KECCAK256 PUSH1 0xAE 0xAD LOG4 EXTCODECOPY SWAP7 0x4F 0x1F 0xBB 0x27 0xC2 0xD9 0xCB 0xEF SWAP13 0xA5 PUSH31 0xCC24F36B6AED0059D5371ADE8A972F64736F6C63430008160033A264697066 PUSH20 0x582212204769E8651299B9A1DAD8822A892103D9 0x23 DUP14 0xD6 PUSH31 0x2ABA9199B5E7770730D4C90064736F6C634300081600330000000000000000 "},"methodIdentifiers":{"deployDeterministic(address,bytes32)":"e919e3ea","deployVault(address,bytes32)":"68027f27","getVaultAddress(address,bytes32)":"197c6b2d","implementation()":"5c60da1b","settlementToken()":"7b9e618d"}}}}}