{
  "_format": "hh-sol-artifact-1",
  "contractName": "VaultFactory",
  "sourceName": "contracts-src/VaultFactory.sol",
  "abi": [
    {
      "inputs": [
        {
          "internalType": "address",
          "name": "_implementation",
          "type": "address"
        },
        {
          "internalType": "address",
          "name": "_settlementToken",
          "type": "address"
        }
      ],
      "stateMutability": "nonpayable",
      "type": "constructor"
    },
    {
      "anonymous": false,
      "inputs": [
        {
          "indexed": true,
          "internalType": "address",
          "name": "vault",
          "type": "address"
        },
        {
          "indexed": true,
          "internalType": "address",
          "name": "admin",
          "type": "address"
        },
        {
          "indexed": false,
          "internalType": "address",
          "name": "spendingAccount",
          "type": "address"
        },
        {
          "indexed": false,
          "internalType": "address",
          "name": "settlementToken",
          "type": "address"
        }
      ],
      "name": "VaultDeployed",
      "type": "event"
    },
    {
      "inputs": [
        {
          "internalType": "address",
          "name": "admin",
          "type": "address"
        },
        {
          "internalType": "address",
          "name": "spendingAccount",
          "type": "address"
        },
        {
          "internalType": "bytes32",
          "name": "userSalt",
          "type": "bytes32"
        }
      ],
      "name": "deployDeterministic",
      "outputs": [
        {
          "internalType": "address",
          "name": "vault",
          "type": "address"
        }
      ],
      "stateMutability": "nonpayable",
      "type": "function"
    },
    {
      "inputs": [
        {
          "internalType": "address",
          "name": "admin",
          "type": "address"
        },
        {
          "internalType": "address",
          "name": "spendingAccount",
          "type": "address"
        },
        {
          "internalType": "bytes32",
          "name": "salt",
          "type": "bytes32"
        }
      ],
      "name": "deployVault",
      "outputs": [
        {
          "internalType": "address",
          "name": "vault",
          "type": "address"
        }
      ],
      "stateMutability": "nonpayable",
      "type": "function"
    },
    {
      "inputs": [
        {
          "internalType": "address",
          "name": "admin",
          "type": "address"
        },
        {
          "internalType": "address",
          "name": "spendingAccount",
          "type": "address"
        },
        {
          "internalType": "bytes32",
          "name": "userSalt",
          "type": "bytes32"
        }
      ],
      "name": "getVaultAddress",
      "outputs": [
        {
          "internalType": "address",
          "name": "",
          "type": "address"
        }
      ],
      "stateMutability": "view",
      "type": "function"
    },
    {
      "inputs": [],
      "name": "implementation",
      "outputs": [
        {
          "internalType": "address",
          "name": "",
          "type": "address"
        }
      ],
      "stateMutability": "view",
      "type": "function"
    },
    {
      "inputs": [],
      "name": "settlementToken",
      "outputs": [
        {
          "internalType": "address",
          "name": "",
          "type": "address"
        }
      ],
      "stateMutability": "view",
      "type": "function"
    }
  ],
  "bytecode": "0x60c060405234801561001057600080fd5b506040516109e03803806109e083398101604081905261002f91610062565b6001600160a01b039182166080521660a052610095565b80516001600160a01b038116811461005d57600080fd5b919050565b6000806040838503121561007557600080fd5b61007e83610046565b915061008c60208401610046565b90509250929050565b60805160a0516109056100db6000396000818160b701528181610121015281816101fd015261029d01526000818160900152818161019301526102d401526109056000f3fe608060405234801561001057600080fd5b50600436106100575760003560e01c80633729f9221461005c5780635c60da1b1461008b5780637b9e618d146100b25780637f04b9a7146100d95780639c8f7415146100ec575b600080fd5b61006f61006a3660046103f5565b6100ff565b6040516001600160a01b03909116815260200160405180910390f35b61006f7f000000000000000000000000000000000000000000000000000000000000000081565b61006f7f000000000000000000000000000000000000000000000000000000000000000081565b61006f6100e73660046103f5565b610114565b61006f6100fa3660046103f5565b610264565b600061010c848484610114565b949350505050565b6040516001600160a01b037f000000000000000000000000000000000000000000000000000000000000000081166024830152808516604483015283166064820152600090819060840160408051601f198184030181529181526020820180516001600160e01b031663c0c53b8b60e01b1790525190915060009084907f00000000000000000000000000000000000000000000000000000000000000009084906101be906103cc565b6101c9929190610455565b8190604051809103906000f59050801580156101e9573d6000803e3d6000fd5b50604080516001600160a01b0388811682527f000000000000000000000000000000000000000000000000000000000000000081166020830152929550859350828916928416917f08063c8075192206c58e6dd01ffef672f99055179aead6066f80fb31dd2db150910160405180910390a350509392505050565b60008060ff60f81b30846040518060200161027e906103cc565b601f1982820381018352601f9091011660408190526001600160a01b037f000000000000000000000000000000000000000000000000000000000000000081166024830152808b166044830152891660648201527f00000000000000000000000000000000000000000000000000000000000000009060840160408051601f19818403018152918152602080830180516001600160e01b031663c0c53b8b60e01b179052905161033093929101610455565b60408051601f198184030181529082905261034e9291602001610497565b604051602081830303815290604052805190602001206040516020016103ab94939291906001600160f81b031994909416845260609290921b6bffffffffffffffffffffffff191660018401526015830152603582015260550190565b60408051808303601f19018152919052805160209091012095945050505050565b610409806104c783390190565b80356001600160a01b03811681146103f057600080fd5b919050565b60008060006060848603121561040a57600080fd5b610413846103d9565b9250610421602085016103d9565b9150604084013590509250925092565b60005b8381101561044c578181015183820152602001610434565b50506000910152565b60018060a01b03831681526040602082015260008251806040840152610482816060850160208701610431565b601f01601f1916919091016060019392505050565b600083516104a9818460208801610431565b8351908301906104bd818360208801610431565b0194935050505056fe608060405260405161040938038061040983398101604081905261002291610267565b61002c8282610033565b5050610351565b61003c82610092565b6040516001600160a01b038316907fbc7cd75a20ee27fd9adebab32041f755214dbc6bffa90cc0225b39da2e5c2d3b90600090a280511561008657610081828261010e565b505050565b61008e610185565b5050565b806001600160a01b03163b6000036100cd57604051634c9c8ce360e01b81526001600160a01b03821660048201526024015b60405180910390fd5b7f360894a13ba1a3210667c828492db98dca3e2076cc3735a920a3ca505d382bbc80546001600160a01b0319166001600160a01b0392909216919091179055565b6060600080846001600160a01b03168460405161012b9190610335565b600060405180830381855af49150503d8060008114610166576040519150601f19603f3d011682016040523d82523d6000602084013e61016b565b606091505b50909250905061017c8583836101a6565b95945050505050565b34156101a45760405163b398979f60e01b815260040160405180910390fd5b565b6060826101bb576101b682610205565b6101fe565b81511580156101d257506001600160a01b0384163b155b156101fb57604051639996b31560e01b81526001600160a01b03851660048201526024016100c4565b50805b9392505050565b80511561021457805160208201fd5b60405163d6bda27560e01b815260040160405180910390fd5b634e487b7160e01b600052604160045260246000fd5b60005b8381101561025e578181015183820152602001610246565b50506000910152565b6000806040838503121561027a57600080fd5b82516001600160a01b038116811461029157600080fd5b60208401519092506001600160401b03808211156102ae57600080fd5b818501915085601f8301126102c257600080fd5b8151818111156102d4576102d461022d565b604051601f8201601f19908116603f011681019083821181831017156102fc576102fc61022d565b8160405282815288602084870101111561031557600080fd5b610326836020830160208801610243565b80955050505050509250929050565b60008251610347818460208701610243565b9190910192915050565b60aa8061035f6000396000f3fe6080604052600a600c565b005b60186014601a565b6051565b565b6000604c7f360894a13ba1a3210667c828492db98dca3e2076cc3735a920a3ca505d382bbc546001600160a01b031690565b905090565b3660008037600080366000845af43d6000803e808015606f573d6000f35b3d6000fdfea264697066735822122060aeada43c964f1fbb27c2d9cbef9ca57ecc24f36b6aed0059d5371ade8a972f64736f6c63430008160033a26469706673582212205f55a0d5b22eab59b63b83b5027a098846b716b7a264332b93f132b57fc6d3c064736f6c63430008160033",
  "linkReferences": {},
  "deployedLinkReferences": {}
}